{"abi":[{"type":"constructor","inputs":[{"name":"owner_","type":"address","internalType":"address"},{"name":"name_","type":"string","internalType":"string"},{"name":"symbol_","type":"string","internalType":"string"},{"name":"baseURI_","type":"string","internalType":"string"},{"name":"contractURI_","type":"string","internalType":"string"},{"name":"operatorAllowlist_","type":"address","internalType":"address"},{"name":"royaltyReceiver_","type":"address","internalType":"address"},{"name":"feeNumerator_","type":"uint96","internalType":"uint96"}],"stateMutability":"nonpayable"},{"type":"function","name":"DEFAULT_ADMIN_ROLE","inputs":[],"outputs":[{"name":"","type":"bytes32","internalType":"bytes32"}],"stateMutability":"view"},{"type":"function","name":"DOMAIN_SEPARATOR","inputs":[],"outputs":[{"name":"","type":"bytes32","internalType":"bytes32"}],"stateMutability":"view"},{"type":"function","name":"MINTER_ROLE","inputs":[],"outputs":[{"name":"","type":"bytes32","internalType":"bytes32"}],"stateMutability":"view"},{"type":"function","name":"_safeBurnBatch","inputs":[{"name":"burns","type":"tuple[]","internalType":"struct ImmutableERC721Base.IDBurn[]","components":[{"name":"owner","type":"address","internalType":"address"},{"name":"tokenIds","type":"uint256[]","internalType":"uint256[]"}]}],"outputs":[],"stateMutability":"nonpayable"},{"type":"function","name":"_totalSupply","inputs":[],"outputs":[{"name":"","type":"uint256","internalType":"uint256"}],"stateMutability":"view"},{"type":"function","name":"approve","inputs":[{"name":"to","type":"address","internalType":"address"},{"name":"tokenId","type":"uint256","internalType":"uint256"}],"outputs":[],"stateMutability":"nonpayable"},{"type":"function","name":"balanceOf","inputs":[{"name":"owner","type":"address","internalType":"address"}],"outputs":[{"name":"","type":"uint256","internalType":"uint256"}],"stateMutability":"view"},{"type":"function","name":"baseURI","inputs":[],"outputs":[{"name":"","type":"string","internalType":"string"}],"stateMutability":"view"},{"type":"function","name":"burn","inputs":[{"name":"tokenId","type":"uint256","internalType":"uint256"}],"outputs":[],"stateMutability":"nonpayable"},{"type":"function","name":"burnBatch","inputs":[{"name":"tokenIDs","type":"uint256[]","internalType":"uint256[]"}],"outputs":[],"stateMutability":"nonpayable"},{"type":"function","name":"contractURI","inputs":[],"outputs":[{"name":"","type":"string","internalType":"string"}],"stateMutability":"view"},{"type":"function","name":"eip712Domain","inputs":[],"outputs":[{"name":"fields","type":"bytes1","internalType":"bytes1"},{"name":"name","type":"string","internalType":"string"},{"name":"version","type":"string","internalType":"string"},{"name":"chainId","type":"uint256","internalType":"uint256"},{"name":"verifyingContract","type":"address","internalType":"address"},{"name":"salt","type":"bytes32","internalType":"bytes32"},{"name":"extensions","type":"uint256[]","internalType":"uint256[]"}],"stateMutability":"view"},{"type":"function","name":"getAdmins","inputs":[],"outputs":[{"name":"","type":"address[]","internalType":"address[]"}],"stateMutability":"view"},{"type":"function","name":"getApproved","inputs":[{"name":"tokenId","type":"uint256","internalType":"uint256"}],"outputs":[{"name":"","type":"address","internalType":"address"}],"stateMutability":"view"},{"type":"function","name":"getRoleAdmin","inputs":[{"name":"role","type":"bytes32","internalType":"bytes32"}],"outputs":[{"name":"","type":"bytes32","internalType":"bytes32"}],"stateMutability":"view"},{"type":"function","name":"getRoleMember","inputs":[{"name":"role","type":"bytes32","internalType":"bytes32"},{"name":"index","type":"uint256","internalType":"uint256"}],"outputs":[{"name":"","type":"address","internalType":"address"}],"stateMutability":"view"},{"type":"function","name":"getRoleMemberCount","inputs":[{"name":"role","type":"bytes32","internalType":"bytes32"}],"outputs":[{"name":"","type":"uint256","internalType":"uint256"}],"stateMutability":"view"},{"type":"function","name":"grantMinterRole","inputs":[{"name":"user","type":"address","internalType":"address"}],"outputs":[],"stateMutability":"nonpayable"},{"type":"function","name":"grantRole","inputs":[{"name":"role","type":"bytes32","internalType":"bytes32"},{"name":"account","type":"address","internalType":"address"}],"outputs":[],"stateMutability":"nonpayable"},{"type":"function","name":"hasRole","inputs":[{"name":"role","type":"bytes32","internalType":"bytes32"},{"name":"account","type":"address","internalType":"address"}],"outputs":[{"name":"","type":"bool","internalType":"bool"}],"stateMutability":"view"},{"type":"function","name":"isApprovedForAll","inputs":[{"name":"owner","type":"address","internalType":"address"},{"name":"operator","type":"address","internalType":"address"}],"outputs":[{"name":"","type":"bool","internalType":"bool"}],"stateMutability":"view"},{"type":"function","name":"mint","inputs":[{"name":"to","type":"address","internalType":"address"},{"name":"tokenID","type":"uint256","internalType":"uint256"}],"outputs":[],"stateMutability":"nonpayable"},{"type":"function","name":"mintBatch","inputs":[{"name":"mintRequests","type":"tuple[]","internalType":"struct ImmutableERC721Base.IDMint[]","components":[{"name":"to","type":"address","internalType":"address"},{"name":"tokenIds","type":"uint256[]","internalType":"uint256[]"}]}],"outputs":[],"stateMutability":"nonpayable"},{"type":"function","name":"name","inputs":[],"outputs":[{"name":"","type":"string","internalType":"string"}],"stateMutability":"view"},{"type":"function","name":"nonces","inputs":[{"name":"tokenId","type":"uint256","internalType":"uint256"}],"outputs":[{"name":"","type":"uint256","internalType":"uint256"}],"stateMutability":"view"},{"type":"function","name":"operatorAllowlist","inputs":[],"outputs":[{"name":"","type":"address","internalType":"contract IOperatorAllowlist"}],"stateMutability":"view"},{"type":"function","name":"ownerOf","inputs":[{"name":"tokenId","type":"uint256","internalType":"uint256"}],"outputs":[{"name":"","type":"address","internalType":"address"}],"stateMutability":"view"},{"type":"function","name":"permit","inputs":[{"name":"spender","type":"address","internalType":"address"},{"name":"tokenId","type":"uint256","internalType":"uint256"},{"name":"deadline","type":"uint256","internalType":"uint256"},{"name":"sig","type":"bytes","internalType":"bytes"}],"outputs":[],"stateMutability":"nonpayable"},{"type":"function","name":"renounceRole","inputs":[{"name":"role","type":"bytes32","internalType":"bytes32"},{"name":"account","type":"address","internalType":"address"}],"outputs":[],"stateMutability":"nonpayable"},{"type":"function","name":"revokeMinterRole","inputs":[{"name":"user","type":"address","internalType":"address"}],"outputs":[],"stateMutability":"nonpayable"},{"type":"function","name":"revokeRole","inputs":[{"name":"role","type":"bytes32","internalType":"bytes32"},{"name":"account","type":"address","internalType":"address"}],"outputs":[],"stateMutability":"nonpayable"},{"type":"function","name":"royaltyInfo","inputs":[{"name":"tokenId","type":"uint256","internalType":"uint256"},{"name":"salePrice","type":"uint256","internalType":"uint256"}],"outputs":[{"name":"","type":"address","internalType":"address"},{"name":"","type":"uint256","internalType":"uint256"}],"stateMutability":"view"},{"type":"function","name":"safeBurn","inputs":[{"name":"owner","type":"address","internalType":"address"},{"name":"tokenId","type":"uint256","internalType":"uint256"}],"outputs":[],"stateMutability":"nonpayable"},{"type":"function","name":"safeBurnBatch","inputs":[{"name":"burns","type":"tuple[]","internalType":"struct ImmutableERC721Base.IDBurn[]","components":[{"name":"owner","type":"address","internalType":"address"},{"name":"tokenIds","type":"uint256[]","internalType":"uint256[]"}]}],"outputs":[],"stateMutability":"nonpayable"},{"type":"function","name":"safeMint","inputs":[{"name":"to","type":"address","internalType":"address"},{"name":"tokenID","type":"uint256","internalType":"uint256"}],"outputs":[],"stateMutability":"nonpayable"},{"type":"function","name":"safeMintBatch","inputs":[{"name":"mintRequests","type":"tuple[]","internalType":"struct ImmutableERC721Base.IDMint[]","components":[{"name":"to","type":"address","internalType":"address"},{"name":"tokenIds","type":"uint256[]","internalType":"uint256[]"}]}],"outputs":[],"stateMutability":"nonpayable"},{"type":"function","name":"safeTransferFrom","inputs":[{"name":"from","type":"address","internalType":"address"},{"name":"to","type":"address","internalType":"address"},{"name":"tokenId","type":"uint256","internalType":"uint256"}],"outputs":[],"stateMutability":"nonpayable"},{"type":"function","name":"safeTransferFrom","inputs":[{"name":"from","type":"address","internalType":"address"},{"name":"to","type":"address","internalType":"address"},{"name":"tokenId","type":"uint256","internalType":"uint256"},{"name":"data","type":"bytes","internalType":"bytes"}],"outputs":[],"stateMutability":"nonpayable"},{"type":"function","name":"safeTransferFromBatch","inputs":[{"name":"tr","type":"tuple","internalType":"struct ImmutableERC721Base.TransferRequest","components":[{"name":"from","type":"address","internalType":"address"},{"name":"tos","type":"address[]","internalType":"address[]"},{"name":"tokenIds","type":"uint256[]","internalType":"uint256[]"}]}],"outputs":[],"stateMutability":"nonpayable"},{"type":"function","name":"setApprovalForAll","inputs":[{"name":"operator","type":"address","internalType":"address"},{"name":"approved","type":"bool","internalType":"bool"}],"outputs":[],"stateMutability":"nonpayable"},{"type":"function","name":"setBaseURI","inputs":[{"name":"baseURI_","type":"string","internalType":"string"}],"outputs":[],"stateMutability":"nonpayable"},{"type":"function","name":"setContractURI","inputs":[{"name":"_contractURI","type":"string","internalType":"string"}],"outputs":[],"stateMutability":"nonpayable"},{"type":"function","name":"setDefaultRoyaltyReceiver","inputs":[{"name":"receiver","type":"address","internalType":"address"},{"name":"feeNumerator","type":"uint96","internalType":"uint96"}],"outputs":[],"stateMutability":"nonpayable"},{"type":"function","name":"setNFTRoyaltyReceiver","inputs":[{"name":"tokenId","type":"uint256","internalType":"uint256"},{"name":"receiver","type":"address","internalType":"address"},{"name":"feeNumerator","type":"uint96","internalType":"uint96"}],"outputs":[],"stateMutability":"nonpayable"},{"type":"function","name":"setNFTRoyaltyReceiverBatch","inputs":[{"name":"tokenIds","type":"uint256[]","internalType":"uint256[]"},{"name":"receiver","type":"address","internalType":"address"},{"name":"feeNumerator","type":"uint96","internalType":"uint96"}],"outputs":[],"stateMutability":"nonpayable"},{"type":"function","name":"supportsInterface","inputs":[{"name":"interfaceId","type":"bytes4","internalType":"bytes4"}],"outputs":[{"name":"","type":"bool","internalType":"bool"}],"stateMutability":"view"},{"type":"function","name":"symbol","inputs":[],"outputs":[{"name":"","type":"string","internalType":"string"}],"stateMutability":"view"},{"type":"function","name":"tokenURI","inputs":[{"name":"tokenId","type":"uint256","internalType":"uint256"}],"outputs":[{"name":"","type":"string","internalType":"string"}],"stateMutability":"view"},{"type":"function","name":"totalSupply","inputs":[],"outputs":[{"name":"","type":"uint256","internalType":"uint256"}],"stateMutability":"view"},{"type":"function","name":"transferFrom","inputs":[{"name":"from","type":"address","internalType":"address"},{"name":"to","type":"address","internalType":"address"},{"name":"tokenId","type":"uint256","internalType":"uint256"}],"outputs":[],"stateMutability":"nonpayable"},{"type":"event","name":"Approval","inputs":[{"name":"owner","type":"address","indexed":true,"internalType":"address"},{"name":"approved","type":"address","indexed":true,"internalType":"address"},{"name":"tokenId","type":"uint256","indexed":true,"internalType":"uint256"}],"anonymous":false},{"type":"event","name":"ApprovalForAll","inputs":[{"name":"owner","type":"address","indexed":true,"internalType":"address"},{"name":"operator","type":"address","indexed":true,"internalType":"address"},{"name":"approved","type":"bool","indexed":false,"internalType":"bool"}],"anonymous":false},{"type":"event","name":"EIP712DomainChanged","inputs":[],"anonymous":false},{"type":"event","name":"OperatorAllowlistRegistryUpdated","inputs":[{"name":"oldRegistry","type":"address","indexed":false,"internalType":"address"},{"name":"newRegistry","type":"address","indexed":false,"internalType":"address"}],"anonymous":false},{"type":"event","name":"RoleAdminChanged","inputs":[{"name":"role","type":"bytes32","indexed":true,"internalType":"bytes32"},{"name":"previousAdminRole","type":"bytes32","indexed":true,"internalType":"bytes32"},{"name":"newAdminRole","type":"bytes32","indexed":true,"internalType":"bytes32"}],"anonymous":false},{"type":"event","name":"RoleGranted","inputs":[{"name":"role","type":"bytes32","indexed":true,"internalType":"bytes32"},{"name":"account","type":"address","indexed":true,"internalType":"address"},{"name":"sender","type":"address","indexed":true,"internalType":"address"}],"anonymous":false},{"type":"event","name":"RoleRevoked","inputs":[{"name":"role","type":"bytes32","indexed":true,"internalType":"bytes32"},{"name":"account","type":"address","indexed":true,"internalType":"address"},{"name":"sender","type":"address","indexed":true,"internalType":"address"}],"anonymous":false},{"type":"event","name":"Transfer","inputs":[{"name":"from","type":"address","indexed":true,"internalType":"address"},{"name":"to","type":"address","indexed":true,"internalType":"address"},{"name":"tokenId","type":"uint256","indexed":true,"internalType":"uint256"}],"anonymous":false},{"type":"error","name":"AllowlistDoesNotImplementIOperatorAllowlist","inputs":[]},{"type":"error","name":"ApproveTargetNotInAllowlist","inputs":[{"name":"target","type":"address","internalType":"address"}]},{"type":"error","name":"ApproverNotInAllowlist","inputs":[{"name":"approver","type":"address","internalType":"address"}]},{"type":"error","name":"CallerNotInAllowlist","inputs":[{"name":"caller","type":"address","internalType":"address"}]},{"type":"error","name":"IImmutableERC721IDAboveThreshold","inputs":[{"name":"tokenId","type":"uint256","internalType":"uint256"}]},{"type":"error","name":"IImmutableERC721MismatchedTokenOwner","inputs":[{"name":"tokenId","type":"uint256","internalType":"uint256"},{"name":"currentOwner","type":"address","internalType":"address"}]},{"type":"error","name":"IImmutableERC721MismatchedTransferLengths","inputs":[]},{"type":"error","name":"IImmutableERC721NotOwnerOrOperator","inputs":[{"name":"tokenId","type":"uint256","internalType":"uint256"}]},{"type":"error","name":"IImmutableERC721SendingToZerothAddress","inputs":[]},{"type":"error","name":"IImmutableERC721TokenAlreadyBurned","inputs":[{"name":"tokenId","type":"uint256","internalType":"uint256"}]},{"type":"error","name":"InvalidShortString","inputs":[]},{"type":"error","name":"InvalidSignature","inputs":[]},{"type":"error","name":"PermitExpired","inputs":[]},{"type":"error","name":"SignerCannotBeZerothAddress","inputs":[]},{"type":"error","name":"StringTooLong","inputs":[{"name":"str","type":"string","internalType":"string"}]},{"type":"error","name":"TransferFromNotInAllowlist","inputs":[{"name":"from","type":"address","internalType":"address"}]},{"type":"error","name":"TransferToNotInAllowlist","inputs":[{"name":"to","type":"address","internalType":"address"}]}],"bytecode":{"object":"0x610160604052348015610010575f5ffd5b50604051618437380380618437833981810160405281019061003291906109f7565b87878787878787878686816040518060400160405280600181526020017f3100000000000000000000000000000000000000000000000000000000000000815250838381600390816100849190610d28565b5080600490816100949190610d28565b5050506100ab6009836101a960201b90919060201c565b61012081815250506100c7600a826101a960201b90919060201c565b6101408181525050818051906020012060e08181525050808051906020012061010081815250504660a081815250506101046101f660201b60201c565b608081815250503073ffffffffffffffffffffffffffffffffffffffff1660c08173ffffffffffffffffffffffffffffffffffffffff1681525050505050506101555f5f1b8961025060201b60201c565b610165828261028860201b60201c565b6101748361041e60201b60201c565b84600f90816101839190610d28565b5083600e90816101939190610d28565b5050505050505050505050505050505050611149565b5f6020835110156101ca576101c38361058760201b60201c565b90506101f0565b826101da836105ec60201b60201c565b5f0190816101e89190610d28565b5060ff5f1b90505b92915050565b5f7f8b73c3c69bb8fe3d512ecc4cf759cc79239f7b179b0ffacaa9a75d522b39400f60e051610100514630604051602001610235959493929190610e2d565b60405160208183030381529060405280519060200120905090565b61026082826105f560201b60201c565b6102838160025f8581526020019081526020015f206106db60201b90919060201c565b505050565b61029661070e60201b60201c565b6bffffffffffffffffffffffff16816bffffffffffffffffffffffff1611156102f4576040517f08c379a00000000000000000000000000000000000000000000000000000000081526004016102eb90610efe565b60405180910390fd5b5f73ffffffffffffffffffffffffffffffffffffffff168273ffffffffffffffffffffffffffffffffffffffff1603610362576040517f08c379a000000000000000000000000000000000000000000000000000000000815260040161035990610f66565b60405180910390fd5b60405180604001604052808373ffffffffffffffffffffffffffffffffffffffff168152602001826bffffffffffffffffffffffff16815250600c5f820151815f015f6101000a81548173ffffffffffffffffffffffffffffffffffffffff021916908373ffffffffffffffffffffffffffffffffffffffff1602179055506020820151815f0160146101000a8154816bffffffffffffffffffffffff02191690836bffffffffffffffffffffffff1602179055509050505050565b8073ffffffffffffffffffffffffffffffffffffffff166301ffc9a77f05a3b809000000000000000000000000000000000000000000000000000000006040518263ffffffff1660e01b81526004016104779190610fbe565b602060405180830381865afa158015610492573d5f5f3e3d5ffd5b505050506040513d601f19601f820116820180604052508101906104b6919061100c565b6104ec576040517fd6f93fb700000000000000000000000000000000000000000000000000000000815260040160405180910390fd5b7f3edc37a14cc8047c7c8a3f354311efe86c14848efd4e3765a3e1e57eea04ea765f5f9054906101000a900473ffffffffffffffffffffffffffffffffffffffff168260405161053d929190611037565b60405180910390a1805f5f6101000a81548173ffffffffffffffffffffffffffffffffffffffff021916908373ffffffffffffffffffffffffffffffffffffffff16021790555050565b5f5f829050601f815111156105d357826040517f305a27a90000000000000000000000000000000000000000000000000000000081526004016105ca9190611096565b60405180910390fd5b8051816105df906110e3565b5f1c175f1b915050919050565b5f819050919050565b610605828261071760201b60201c565b6106d7576001805f8481526020019081526020015f205f015f8373ffffffffffffffffffffffffffffffffffffffff1673ffffffffffffffffffffffffffffffffffffffff1681526020019081526020015f205f6101000a81548160ff02191690831515021790555061067c61077b60201b60201c565b73ffffffffffffffffffffffffffffffffffffffff168173ffffffffffffffffffffffffffffffffffffffff16837f2f8788117e7eff1d82e926ec794901d17c78024a50270940304540a733656f0d60405160405180910390a45b5050565b5f610706835f018373ffffffffffffffffffffffffffffffffffffffff165f1b61078260201b60201c565b905092915050565b5f612710905090565b5f60015f8481526020019081526020015f205f015f8373ffffffffffffffffffffffffffffffffffffffff1673ffffffffffffffffffffffffffffffffffffffff1681526020019081526020015f205f9054906101000a900460ff16905092915050565b5f33905090565b5f61079383836107ef60201b60201c565b6107e557825f0182908060018154018082558091505060019003905f5260205f20015f9091909190915055825f0180549050836001015f8481526020019081526020015f2081905550600190506107e9565b5f90505b92915050565b5f5f836001015f8481526020019081526020015f20541415905092915050565b5f604051905090565b5f5ffd5b5f5ffd5b5f73ffffffffffffffffffffffffffffffffffffffff82169050919050565b5f61084982610820565b9050919050565b6108598161083f565b8114610863575f5ffd5b50565b5f8151905061087481610850565b92915050565b5f5ffd5b5f5ffd5b5f601f19601f8301169050919050565b7f4e487b71000000000000000000000000000000000000000000000000000000005f52604160045260245ffd5b6108c882610882565b810181811067ffffffffffffffff821117156108e7576108e6610892565b5b80604052505050565b5f6108f961080f565b905061090582826108bf565b919050565b5f67ffffffffffffffff82111561092457610923610892565b5b61092d82610882565b9050602081019050919050565b8281835e5f83830152505050565b5f61095a6109558461090a565b6108f0565b9050828152602081018484840111156109765761097561087e565b5b61098184828561093a565b509392505050565b5f82601f83011261099d5761099c61087a565b5b81516109ad848260208601610948565b91505092915050565b5f6bffffffffffffffffffffffff82169050919050565b6109d6816109b6565b81146109e0575f5ffd5b50565b5f815190506109f1816109cd565b92915050565b5f5f5f5f5f5f5f5f610100898b031215610a1457610a13610818565b5b5f610a218b828c01610866565b985050602089015167ffffffffffffffff811115610a4257610a4161081c565b5b610a4e8b828c01610989565b975050604089015167ffffffffffffffff811115610a6f57610a6e61081c565b5b610a7b8b828c01610989565b965050606089015167ffffffffffffffff811115610a9c57610a9b61081c565b5b610aa88b828c01610989565b955050608089015167ffffffffffffffff811115610ac957610ac861081c565b5b610ad58b828c01610989565b94505060a0610ae68b828c01610866565b93505060c0610af78b828c01610866565b92505060e0610b088b828c016109e3565b9150509295985092959890939650565b5f81519050919050565b7f4e487b71000000000000000000000000000000000000000000000000000000005f52602260045260245ffd5b5f6002820490506001821680610b6657607f821691505b602082108103610b7957610b78610b22565b5b50919050565b5f819050815f5260205f209050919050565b5f6020601f8301049050919050565b5f82821b905092915050565b5f60088302610bdb7fffffffffffffffffffffffffffffffffffffffffffffffffffffffffffffffff82610ba0565b610be58683610ba0565b95508019841693508086168417925050509392505050565b5f819050919050565b5f819050919050565b5f610c29610c24610c1f84610bfd565b610c06565b610bfd565b9050919050565b5f819050919050565b610c4283610c0f565b610c56610c4e82610c30565b848454610bac565b825550505050565b5f5f905090565b610c6d610c5e565b610c78818484610c39565b505050565b5b81811015610c9b57610c905f82610c65565b600181019050610c7e565b5050565b601f821115610ce057610cb181610b7f565b610cba84610b91565b81016020851015610cc9578190505b610cdd610cd585610b91565b830182610c7d565b50505b505050565b5f82821c905092915050565b5f610d005f1984600802610ce5565b1980831691505092915050565b5f610d188383610cf1565b9150826002028217905092915050565b610d3182610b18565b67ffffffffffffffff811115610d4a57610d49610892565b5b610d548254610b4f565b610d5f828285610c9f565b5f60209050601f831160018114610d90575f8415610d7e578287015190505b610d888582610d0d565b865550610def565b601f198416610d9e86610b7f565b5f5b82811015610dc557848901518255600182019150602085019450602081019050610da0565b86831015610de25784890151610dde601f891682610cf1565b8355505b6001600288020188555050505b505050505050565b5f819050919050565b610e0981610df7565b82525050565b610e1881610bfd565b82525050565b610e278161083f565b82525050565b5f60a082019050610e405f830188610e00565b610e4d6020830187610e00565b610e5a6040830186610e00565b610e676060830185610e0f565b610e746080830184610e1e565b9695505050505050565b5f82825260208201905092915050565b7f455243323938313a20726f79616c7479206665652077696c6c206578636565645f8201527f2073616c65507269636500000000000000000000000000000000000000000000602082015250565b5f610ee8602a83610e7e565b9150610ef382610e8e565b604082019050919050565b5f6020820190508181035f830152610f1581610edc565b9050919050565b7f455243323938313a20696e76616c6964207265636569766572000000000000005f82015250565b5f610f50601983610e7e565b9150610f5b82610f1c565b602082019050919050565b5f6020820190508181035f830152610f7d81610f44565b9050919050565b5f7fffffffff0000000000000000000000000000000000000000000000000000000082169050919050565b610fb881610f84565b82525050565b5f602082019050610fd15f830184610faf565b92915050565b5f8115159050919050565b610feb81610fd7565b8114610ff5575f5ffd5b50565b5f8151905061100681610fe2565b92915050565b5f6020828403121561102157611020610818565b5b5f61102e84828501610ff8565b91505092915050565b5f60408201905061104a5f830185610e1e565b6110576020830184610e1e565b9392505050565b5f61106882610b18565b6110728185610e7e565b935061108281856020860161093a565b61108b81610882565b840191505092915050565b5f6020820190508181035f8301526110ae818461105e565b905092915050565b5f81519050919050565b5f819050602082019050919050565b5f6110da8251610df7565b80915050919050565b5f6110ed826110b6565b826110f7846110c0565b9050611102816110cf565b925060208210156111425761113d7fffffffffffffffffffffffffffffffffffffffffffffffffffffffffffffffff83602003600802610ba0565b831692505b5050919050565b60805160a05160c05160e05161010051610120516101405161729d61119a5f395f61155601525f61152201525f61344e01525f61342d01525f6125c801525f61261e01525f612647015261729d5ff3fe608060405234801561000f575f5ffd5b50600436106102d3575f3560e01c806369e2f0fb116101805780639f15d700116100e7578063c87b56dd116100a0578063d547741f1161007a578063d547741f146108d8578063e4623c1b146108f4578063e8a3d48514610910578063e985e9c51461092e576102d3565b8063c87b56dd1461085a578063ca15c8731461088a578063d5391393146108ba576102d3565b80639f15d700146107b0578063a1448194146107cc578063a217fddf146107e8578063a22cb46514610806578063a701281614610822578063b88d4fde1461083e576102d3565b8063885e7a0811610139578063885e7a08146106de5780639010d07c146106fa57806391d148541461072a578063938e3d7b1461075a57806395d89b41146107765780639e2641a314610794576102d3565b806369e2f0fb146106185780636c0360eb1461063457806370a0823114610652578063745a41bc1461068257806374f16a811461069e57806384b0196e146106ba576102d3565b80632f2ff15d1161023f5780633eaaf86b116101f857806342966c68116101d257806342966c6814610594578063439aed34146105b057806355f804b3146105cc5780636352211e146105e8576102d3565b80633eaaf86b1461053e57806340c10f191461055c57806342842e0e14610578576102d3565b80632f2ff15d1461049257806331ae450b146104ae5780633644e515146104cc57806336568abe146104ea5780633dd1eb61146105065780633e769acd14610522576102d3565b806318160ddd1161029157806318160ddd146103bd578063234af046146103db57806323b872dd146103f7578063248a9ca31461041357806329326f29146104435780632a55205a14610461576102d3565b80628ad946146102d757806301ffc9a7146102f357806306fdde0314610323578063081812fc14610341578063095ea7b314610371578063141a468c1461038d575b5f5ffd5b6102f160048036038101906102ec9190614ec2565b61095e565b005b61030d60048036038101906103089190614f5e565b610a60565b60405161031a9190614fa3565b60405180910390f35b61032b610a71565b604051610338919061502c565b60405180910390f35b61035b6004803603810190610356919061507f565b610b01565b60405161036891906150e9565b60405180910390f35b61038b6004803603810190610386919061512c565b610b43565b005b6103a760048036038101906103a2919061507f565b610c59565b6040516103b49190615179565b60405180910390f35b6103c5610c73565b6040516103d29190615179565b60405180910390f35b6103f560048036038101906103f091906151f3565b610c7c565b005b610411600480360381019061040c919061523e565b610cf6565b005b61042d600480360381019061042891906152c1565b610d56565b60405161043a91906152fb565b60405180910390f35b61044b610d73565b604051610458919061536f565b60405180910390f35b61047b60048036038101906104769190615388565b610d97565b6040516104899291906153c6565b60405180910390f35b6104ac60048036038101906104a791906153ed565b610f73565b005b6104b6610f94565b6040516104c391906154e2565b60405180910390f35b6104d4611069565b6040516104e191906152fb565b60405180910390f35b61050460048036038101906104ff91906153ed565b611077565b005b610520600480360381019061051b9190615502565b6110fa565b005b61053c60048036038101906105379190615582565b611134565b005b6105466111ed565b6040516105539190615179565b60405180910390f35b6105766004803603810190610571919061512c565b6111f3565b005b610592600480360381019061058d919061523e565b611243565b005b6105ae60048036038101906105a9919061507f565b611262565b005b6105ca60048036038101906105c5919061560e565b611299565b005b6105e660048036038101906105e19190615786565b6112d4565b005b61060260048036038101906105fd919061507f565b6112f4565b60405161060f91906150e9565b60405180910390f35b610632600480360381019061062d9190615502565b611378565b005b61063c6113b2565b604051610649919061502c565b60405180910390f35b61066c60048036038101906106679190615502565b61143e565b6040516106799190615179565b60405180910390f35b61069c6004803603810190610697919061586b565b6114f2565b005b6106b860048036038101906106b39190615582565b611504565b005b6106c2611512565b6040516106d597969594939291906159dc565b60405180910390f35b6106f860048036038101906106f39190615a5e565b61160f565b005b610714600480360381019061070f9190615a9c565b61162a565b60405161072191906150e9565b60405180910390f35b610744600480360381019061073f91906153ed565b611656565b6040516107519190614fa3565b60405180910390f35b610774600480360381019061076f9190615786565b6116ba565b005b61077e6116da565b60405161078b919061502c565b60405180910390f35b6107ae60048036038101906107a991906151f3565b61176a565b005b6107ca60048036038101906107c5919061512c565b6117e4565b005b6107e660048036038101906107e1919061512c565b611870565b005b6107f06118cf565b6040516107fd91906152fb565b60405180910390f35b610820600480360381019061081b9190615b04565b6118d5565b005b61083c60048036038101906108379190615b97565b611ae1565b005b61085860048036038101906108539190615c08565b611b54565b005b610874600480360381019061086f919061507f565b611bb6565b604051610881919061502c565b60405180910390f35b6108a4600480360381019061089f91906152c1565b611c1b565b6040516108b19190615179565b60405180910390f35b6108c2611c3c565b6040516108cf91906152fb565b60405180910390f35b6108f260048036038101906108ed91906153ed565b611c60565b005b61090e60048036038101906109099190615c88565b611c81565b005b610918611cc5565b604051610925919061502c565b60405180910390f35b61094860048036038101906109439190615cd3565b611d51565b6040516109559190614fa3565b60405180910390f35b80806020019061096e9190615d1d565b90508180604001906109809190615d7f565b9050146109b9576040517f359a1bc300000000000000000000000000000000000000000000000000000000815260040160405180910390fd5b5f5f90505b8180604001906109ce9190615d7f565b9050811015610a5c57610a4f825f0160208101906109ec9190615502565b8380602001906109fc9190615d1d565b84818110610a0d57610a0c615de1565b5b9050602002016020810190610a229190615502565b848060400190610a329190615d7f565b85818110610a4357610a42615de1565b5b90506020020135611243565b80806001019150506109be565b5050565b5f610a6a82611ddf565b9050919050565b606060038054610a8090615e3b565b80601f0160208091040260200160405190810160405280929190818152602001828054610aac90615e3b565b8015610af75780601f10610ace57610100808354040283529160200191610af7565b820191905f5260205f20905b815481529060010190602001808311610ada57829003601f168201915b5050505050905090565b5f610b0b82611e58565b60075f8381526020019081526020015f205f9054906101000a900473ffffffffffffffffffffffffffffffffffffffff169050919050565b5f610b4d826112f4565b90508073ffffffffffffffffffffffffffffffffffffffff168373ffffffffffffffffffffffffffffffffffffffff1603610bbd576040517f08c379a0000000000000000000000000000000000000000000000000000000008152600401610bb490615edb565b60405180910390fd5b8073ffffffffffffffffffffffffffffffffffffffff16610bdc611ea3565b73ffffffffffffffffffffffffffffffffffffffff161480610c0b5750610c0a81610c05611ea3565b611d51565b5b610c4a576040517f08c379a0000000000000000000000000000000000000000000000000000000008152600401610c4190615f69565b60405180910390fd5b610c548383611eaa565b505050565b5f600b5f8381526020019081526020015f20549050919050565b5f601054905090565b7f4d494e5445525f524f4c45000000000000000000000000000000000000000000610ca6816120b6565b5f5f90505b83839050811015610cf057610ce3848483818110610ccc57610ccb615de1565b5b9050602002810190610cde9190615f87565b6120ca565b8080600101915050610cab565b50505050565b610d07610d01611ea3565b826121d3565b610d46576040517f08c379a0000000000000000000000000000000000000000000000000000000008152600401610d3d9061601e565b60405180910390fd5b610d51838383612267565b505050565b5f60015f8381526020019081526020015f20600101549050919050565b5f5f9054906101000a900473ffffffffffffffffffffffffffffffffffffffff1681565b5f5f5f600d5f8681526020019081526020015f206040518060400160405290815f82015f9054906101000a900473ffffffffffffffffffffffffffffffffffffffff1673ffffffffffffffffffffffffffffffffffffffff1673ffffffffffffffffffffffffffffffffffffffff1681526020015f820160149054906101000a90046bffffffffffffffffffffffff166bffffffffffffffffffffffff166bffffffffffffffffffffffff168152505090505f73ffffffffffffffffffffffffffffffffffffffff16815f015173ffffffffffffffffffffffffffffffffffffffff1603610f2057600c6040518060400160405290815f82015f9054906101000a900473ffffffffffffffffffffffffffffffffffffffff1673ffffffffffffffffffffffffffffffffffffffff1673ffffffffffffffffffffffffffffffffffffffff1681526020015f820160149054906101000a90046bffffffffffffffffffffffff166bffffffffffffffffffffffff166bffffffffffffffffffffffff168152505090505b5f610f2961258a565b6bffffffffffffffffffffffff1682602001516bffffffffffffffffffffffff1686610f559190616069565b610f5f91906160d7565b9050815f0151819350935050509250929050565b610f7c82610d56565b610f85816120b6565b610f8f8383612593565b505050565b60605f610fa25f5f1b611c1b565b90505f8167ffffffffffffffff811115610fbf57610fbe615662565b5b604051908082528060200260200182016040528015610fed5781602001602082028036833780820191505090505b5090505f5b82811015611060576110065f5f1b8261162a565b82828151811061101957611018615de1565b5b602002602001019073ffffffffffffffffffffffffffffffffffffffff16908173ffffffffffffffffffffffffffffffffffffffff16815250508080600101915050610ff2565b50809250505090565b5f6110726125c5565b905090565b61107f611ea3565b73ffffffffffffffffffffffffffffffffffffffff168173ffffffffffffffffffffffffffffffffffffffff16146110ec576040517f08c379a00000000000000000000000000000000000000000000000000000000081526004016110e390616177565b60405180910390fd5b6110f6828261267b565b5050565b5f5f1b611106816120b6565b6111307f4d494e5445525f524f4c4500000000000000000000000000000000000000000083610f73565b5050565b5f5f90505b828290508110156111e8573683838381811061115857611157615de1565b5b905060200281019061116a9190616195565b90505f5f90505b8180602001906111819190615d7f565b90508110156111d9576111cc825f01602081019061119f9190615502565b8380602001906111af9190615d7f565b848181106111c0576111bf615de1565b5b905060200201356117e4565b8080600101915050611171565b50508080600101915050611139565b505050565b60105481565b7f4d494e5445525f524f4c4500000000000000000000000000000000000000000061121d816120b6565b60105f81548092919061122f906161bc565b919050555061123e83836126ad565b505050565b61125d83838360405180602001604052805f815250611b54565b505050565b61126b81612711565b61127f81601161276d90919063ffffffff16565b60105f81548092919061129190616203565b919050555050565b7f4d494e5445525f524f4c450000000000000000000000000000000000000000006112c3816120b6565b6112ce8484846127a5565b50505050565b5f5f1b6112e0816120b6565b81600f90816112ef91906163c1565b505050565b5f5f6112ff83612945565b90505f73ffffffffffffffffffffffffffffffffffffffff168173ffffffffffffffffffffffffffffffffffffffff160361136f576040517f08c379a0000000000000000000000000000000000000000000000000000000008152600401611366906164da565b60405180910390fd5b80915050919050565b5f5f1b611384816120b6565b6113ae7f4d494e5445525f524f4c4500000000000000000000000000000000000000000083611c60565b5050565b600f80546113bf90615e3b565b80601f01602080910402602001604051908101604052809291908181526020018280546113eb90615e3b565b80156114365780601f1061140d57610100808354040283529160200191611436565b820191905f5260205f20905b81548152906001019060200180831161141957829003601f168201915b505050505081565b5f5f73ffffffffffffffffffffffffffffffffffffffff168273ffffffffffffffffffffffffffffffffffffffff16036114ad576040517f08c379a00000000000000000000000000000000000000000000000000000000081526004016114a490616568565b60405180910390fd5b60065f8373ffffffffffffffffffffffffffffffffffffffff1673ffffffffffffffffffffffffffffffffffffffff1681526020019081526020015f20549050919050565b6114fe8484848461297e565b50505050565b61150e8282611134565b5050565b5f6060805f5f5f606061154f60097f0000000000000000000000000000000000000000000000000000000000000000612adc90919063ffffffff16565b611583600a7f0000000000000000000000000000000000000000000000000000000000000000612adc90919063ffffffff16565b46305f5f1b5f67ffffffffffffffff8111156115a2576115a1615662565b5b6040519080825280602002602001820160405280156115d05781602001602082028036833780820191505090505b507f0f00000000000000000000000000000000000000000000000000000000000000959493929190965096509650965096509650965090919293949596565b5f5f1b61161b816120b6565b6116258383612b89565b505050565b5f61164e8260025f8681526020019081526020015f20612d1990919063ffffffff16565b905092915050565b5f60015f8481526020019081526020015f205f015f8373ffffffffffffffffffffffffffffffffffffffff1673ffffffffffffffffffffffffffffffffffffffff1681526020019081526020015f205f9054906101000a900460ff16905092915050565b5f5f1b6116c6816120b6565b81600e90816116d591906163c1565b505050565b6060600480546116e990615e3b565b80601f016020809104026020016040519081016040528092919081815260200182805461171590615e3b565b80156117605780601f1061173757610100808354040283529160200191611760565b820191905f5260205f20905b81548152906001019060200180831161174357829003601f168201915b5050505050905090565b7f4d494e5445525f524f4c45000000000000000000000000000000000000000000611794816120b6565b5f5f90505b838390508110156117de576117d18484838181106117ba576117b9615de1565b5b90506020028101906117cc9190615f87565b612d30565b8080600101915050611799565b50505050565b5f6117ee826112f4565b90508273ffffffffffffffffffffffffffffffffffffffff168173ffffffffffffffffffffffffffffffffffffffff16146118625781816040517f4fefd561000000000000000000000000000000000000000000000000000000008152600401611859929190616586565b60405180910390fd5b61186b82611262565b505050565b7f4d494e5445525f524f4c4500000000000000000000000000000000000000000061189a816120b6565b60105f8154809291906118ac906161bc565b91905055506118ca838360405180602001604052805f815250612e3c565b505050565b5f5f1b81565b815f3373ffffffffffffffffffffffffffffffffffffffff163b1415801561199257505f5f9054906101000a900473ffffffffffffffffffffffffffffffffffffffff1673ffffffffffffffffffffffffffffffffffffffff166305a3b809336040518263ffffffff1660e01b815260040161195191906150e9565b602060405180830381865afa15801561196c573d5f5f3e3d5ffd5b505050506040513d601f19601f8201168201806040525081019061199091906165c1565b155b156119d457336040517ff6fa4cbd0000000000000000000000000000000000000000000000000000000081526004016119cb91906150e9565b60405180910390fd5b5f8173ffffffffffffffffffffffffffffffffffffffff163b14158015611a9057505f5f9054906101000a900473ffffffffffffffffffffffffffffffffffffffff1673ffffffffffffffffffffffffffffffffffffffff166305a3b809826040518263ffffffff1660e01b8152600401611a4f91906150e9565b602060405180830381865afa158015611a6a573d5f5f3e3d5ffd5b505050506040513d601f19601f82011682018060405250810190611a8e91906165c1565b155b15611ad257806040517f8371ab02000000000000000000000000000000000000000000000000000000008152600401611ac991906150e9565b60405180910390fd5b611adc8383612e96565b505050565b7f4d494e5445525f524f4c45000000000000000000000000000000000000000000611b0b816120b6565b5f5f90505b85859050811015611b4c57611b3f868683818110611b3157611b30615de1565b5b9050602002013585856127a5565b8080600101915050611b10565b505050505050565b611b65611b5f611ea3565b836121d3565b611ba4576040517f08c379a0000000000000000000000000000000000000000000000000000000008152600401611b9b9061601e565b60405180910390fd5b611bb084848484612eac565b50505050565b6060611bc182611e58565b5f611bca612f08565b90505f815111611be85760405180602001604052805f815250611c13565b80611bf284612f98565b604051602001611c03929190616626565b6040516020818303038152906040525b915050919050565b5f611c3560025f8481526020019081526020015f20613062565b9050919050565b7f4d494e5445525f524f4c4500000000000000000000000000000000000000000081565b611c6982610d56565b611c72816120b6565b611c7c838361267b565b505050565b5f5f90505b82829050811015611cc057611cb3838383818110611ca757611ca6615de1565b5b90506020020135611262565b8080600101915050611c86565b505050565b600e8054611cd290615e3b565b80601f0160208091040260200160405190810160405280929190818152602001828054611cfe90615e3b565b8015611d495780601f10611d2057610100808354040283529160200191611d49565b820191905f5260205f20905b815481529060010190602001808311611d2c57829003601f168201915b505050505081565b5f60085f8473ffffffffffffffffffffffffffffffffffffffff1673ffffffffffffffffffffffffffffffffffffffff1681526020019081526020015f205f8373ffffffffffffffffffffffffffffffffffffffff1673ffffffffffffffffffffffffffffffffffffffff1681526020019081526020015f205f9054906101000a900460ff16905092915050565b5f7f2a55205a000000000000000000000000000000000000000000000000000000007bffffffffffffffffffffffffffffffffffffffffffffffffffffffff1916827bffffffffffffffffffffffffffffffffffffffffffffffffffffffff19161480611e515750611e5082613075565b5b9050919050565b611e61816130ee565b611ea0576040517f08c379a0000000000000000000000000000000000000000000000000000000008152600401611e97906164da565b60405180910390fd5b50565b5f33905090565b815f3373ffffffffffffffffffffffffffffffffffffffff163b14158015611f6757505f5f9054906101000a900473ffffffffffffffffffffffffffffffffffffffff1673ffffffffffffffffffffffffffffffffffffffff166305a3b809336040518263ffffffff1660e01b8152600401611f2691906150e9565b602060405180830381865afa158015611f41573d5f5f3e3d5ffd5b505050506040513d601f19601f82011682018060405250810190611f6591906165c1565b155b15611fa957336040517ff6fa4cbd000000000000000000000000000000000000000000000000000000008152600401611fa091906150e9565b60405180910390fd5b5f8173ffffffffffffffffffffffffffffffffffffffff163b1415801561206557505f5f9054906101000a900473ffffffffffffffffffffffffffffffffffffffff1673ffffffffffffffffffffffffffffffffffffffff166305a3b809826040518263ffffffff1660e01b815260040161202491906150e9565b602060405180830381865afa15801561203f573d5f5f3e3d5ffd5b505050506040513d601f19601f8201168201806040525081019061206391906165c1565b155b156120a757806040517f8371ab0200000000000000000000000000000000000000000000000000000000815260040161209e91906150e9565b60405180910390fd5b6120b1838361312e565b505050565b6120c7816120c2611ea3565b6131e4565b50565b5f73ffffffffffffffffffffffffffffffffffffffff16815f0160208101906120f39190615502565b73ffffffffffffffffffffffffffffffffffffffff1603612140576040517f6387ca5200000000000000000000000000000000000000000000000000000000815260040160405180910390fd5b5f5b8180602001906121529190615d7f565b90508110156121aa5761219d825f0160208101906121709190615502565b8380602001906121809190615d7f565b8481811061219157612190615de1565b5b90506020020135613268565b8080600101915050612142565b508080602001906121bb9190615d7f565b90506010546121ca9190616649565b60108190555050565b5f5f6121de836112f4565b90508073ffffffffffffffffffffffffffffffffffffffff168473ffffffffffffffffffffffffffffffffffffffff161480612220575061221f8185611d51565b5b8061225e57508373ffffffffffffffffffffffffffffffffffffffff1661224684610b01565b73ffffffffffffffffffffffffffffffffffffffff16145b91505092915050565b82823273ffffffffffffffffffffffffffffffffffffffff163373ffffffffffffffffffffffffffffffffffffffff161415801561233a57505f5f9054906101000a900473ffffffffffffffffffffffffffffffffffffffff1673ffffffffffffffffffffffffffffffffffffffff166305a3b809336040518263ffffffff1660e01b81526004016122f991906150e9565b602060405180830381865afa158015612314573d5f5f3e3d5ffd5b505050506040513d601f19601f8201168201806040525081019061233891906165c1565b155b1561237c57336040517f937db65f00000000000000000000000000000000000000000000000000000000815260040161237391906150e9565b60405180910390fd5b5f8273ffffffffffffffffffffffffffffffffffffffff163b1415801561243857505f5f9054906101000a900473ffffffffffffffffffffffffffffffffffffffff1673ffffffffffffffffffffffffffffffffffffffff166305a3b809836040518263ffffffff1660e01b81526004016123f791906150e9565b602060405180830381865afa158015612412573d5f5f3e3d5ffd5b505050506040513d601f19601f8201168201806040525081019061243691906165c1565b155b1561247a57816040517ff934453100000000000000000000000000000000000000000000000000000000815260040161247191906150e9565b60405180910390fd5b5f8173ffffffffffffffffffffffffffffffffffffffff163b1415801561253657505f5f9054906101000a900473ffffffffffffffffffffffffffffffffffffffff1673ffffffffffffffffffffffffffffffffffffffff166305a3b809826040518263ffffffff1660e01b81526004016124f591906150e9565b602060405180830381865afa158015612510573d5f5f3e3d5ffd5b505050506040513d601f19601f8201168201806040525081019061253491906165c1565b155b1561257857806040517f54ce484200000000000000000000000000000000000000000000000000000000815260040161256f91906150e9565b60405180910390fd5b6125838585856132cc565b5050505050565b5f612710905090565b61259d8282613302565b6125c08160025f8581526020019081526020015f206133dc90919063ffffffff16565b505050565b5f7f000000000000000000000000000000000000000000000000000000000000000073ffffffffffffffffffffffffffffffffffffffff163073ffffffffffffffffffffffffffffffffffffffff1614801561264057507f000000000000000000000000000000000000000000000000000000000000000046145b1561266d577f00000000000000000000000000000000000000000000000000000000000000009050612678565b612675613409565b90505b90565b612685828261349e565b6126a88160025f8581526020019081526020015f2061357990919063ffffffff16565b505050565b6126c18160116135a690919063ffffffff16565b1561270357806040517fbb9b42200000000000000000000000000000000000000000000000000000000081526004016126fa9190615179565b60405180910390fd5b61270d82826135dc565b5050565b61272261271c611ea3565b826121d3565b612761576040517f08c379a00000000000000000000000000000000000000000000000000000000081526004016127589061601e565b60405180910390fd5b61276a816137ef565b50565b5f600882901c90505f60ff83166001901b905080845f015f8481526020019081526020015f205f828254179250508190555050505050565b6127ad61258a565b6bffffffffffffffffffffffff16816bffffffffffffffffffffffff16111561280b576040517f08c379a0000000000000000000000000000000000000000000000000000000008152600401612802906166ec565b60405180910390fd5b5f73ffffffffffffffffffffffffffffffffffffffff168273ffffffffffffffffffffffffffffffffffffffff1603612879576040517f08c379a000000000000000000000000000000000000000000000000000000000815260040161287090616754565b60405180910390fd5b60405180604001604052808373ffffffffffffffffffffffffffffffffffffffff168152602001826bffffffffffffffffffffffff16815250600d5f8581526020019081526020015f205f820151815f015f6101000a81548173ffffffffffffffffffffffffffffffffffffffff021916908373ffffffffffffffffffffffffffffffffffffffff1602179055506020820151815f0160146101000a8154816bffffffffffffffffffffffff02191690836bffffffffffffffffffffffff160217905550905050505050565b5f60055f8381526020019081526020015f205f9054906101000a900473ffffffffffffffffffffffffffffffffffffffff169050919050565b428210156129b8576040517f1a15a3cc00000000000000000000000000000000000000000000000000000000815260040160405180910390fd5b5f6129c4858585613930565b90506129d96129d2856112f4565b82846139a6565b156129ee576129e88585611eaa565b50612ad6565b5f5f90506040835103612a3657612a2f82612a0b855f6020613b18565b612a149061679f565b612a218660206040613b18565b612a2a9061679f565b613c34565b9050612a83565b6041835103612a5057612a498284613c5b565b9050612a82565b6040517f8baa579f00000000000000000000000000000000000000000000000000000000815260040160405180910390fd5b5b612a8d8186613c80565b15612aa157612a9c8686611eaa565b612ad3565b6040517f8baa579f00000000000000000000000000000000000000000000000000000000815260040160405180910390fd5b50505b50505050565b606060ff5f1b8314612af857612af183613ccb565b9050612b83565b818054612b0490615e3b565b80601f0160208091040260200160405190810160405280929190818152602001828054612b3090615e3b565b8015612b7b5780601f10612b5257610100808354040283529160200191612b7b565b820191905f5260205f20905b815481529060010190602001808311612b5e57829003601f168201915b505050505090505b92915050565b612b9161258a565b6bffffffffffffffffffffffff16816bffffffffffffffffffffffff161115612bef576040517f08c379a0000000000000000000000000000000000000000000000000000000008152600401612be6906166ec565b60405180910390fd5b5f73ffffffffffffffffffffffffffffffffffffffff168273ffffffffffffffffffffffffffffffffffffffff1603612c5d576040517f08c379a0000000000000000000000000000000000000000000000000000000008152600401612c549061684f565b60405180910390fd5b60405180604001604052808373ffffffffffffffffffffffffffffffffffffffff168152602001826bffffffffffffffffffffffff16815250600c5f820151815f015f6101000a81548173ffffffffffffffffffffffffffffffffffffffff021916908373ffffffffffffffffffffffffffffffffffffffff1602179055506020820151815f0160146101000a8154816bffffffffffffffffffffffff02191690836bffffffffffffffffffffffff1602179055509050505050565b5f612d26835f0183613d3d565b5f1c905092915050565b5f73ffffffffffffffffffffffffffffffffffffffff16815f016020810190612d599190615502565b73ffffffffffffffffffffffffffffffffffffffff1603612da6576040517f6387ca5200000000000000000000000000000000000000000000000000000000815260040160405180910390fd5b808060200190612db69190615d7f565b9050601054612dc59190616649565b6010819055505f5f90505b818060200190612de09190615d7f565b9050811015612e3857612e2b825f016020810190612dfe9190615502565b838060200190612e0e9190615d7f565b84818110612e1f57612e1e615de1565b5b905060200201356126ad565b8080600101915050612dd0565b5050565b612e4683836126ad565b612e525f848484613d64565b612e91576040517f08c379a0000000000000000000000000000000000000000000000000000000008152600401612e88906168dd565b60405180910390fd5b505050565b612ea8612ea1611ea3565b8383613ee6565b5050565b612eb7848484612267565b612ec384848484613d64565b612f02576040517f08c379a0000000000000000000000000000000000000000000000000000000008152600401612ef9906168dd565b60405180910390fd5b50505050565b6060600f8054612f1790615e3b565b80601f0160208091040260200160405190810160405280929190818152602001828054612f4390615e3b565b8015612f8e5780601f10612f6557610100808354040283529160200191612f8e565b820191905f5260205f20905b815481529060010190602001808311612f7157829003601f168201915b5050505050905090565b60605f6001612fa68461404d565b0190505f8167ffffffffffffffff811115612fc457612fc3615662565b5b6040519080825280601f01601f191660200182016040528015612ff65781602001600182028036833780820191505090505b5090505f82602001820190505b600115613057578080600190039150507f3031323334353637383961626364656600000000000000000000000000000000600a86061a8153600a858161304c5761304b6160aa565b5b0494505f8503613003575b819350505050919050565b5f61306e825f0161419e565b9050919050565b5f7f5604e225000000000000000000000000000000000000000000000000000000007bffffffffffffffffffffffffffffffffffffffffffffffffffffffff1916827bffffffffffffffffffffffffffffffffffffffffffffffffffffffff191614806130e757506130e6826141ad565b5b9050919050565b5f5f73ffffffffffffffffffffffffffffffffffffffff1661310f83612945565b73ffffffffffffffffffffffffffffffffffffffff1614159050919050565b8160075f8381526020019081526020015f205f6101000a81548173ffffffffffffffffffffffffffffffffffffffff021916908373ffffffffffffffffffffffffffffffffffffffff160217905550808273ffffffffffffffffffffffffffffffffffffffff1661319e836112f4565b73ffffffffffffffffffffffffffffffffffffffff167f8c5be1e5ebec7d5bd14f71427d1e84f3dd0314c0f7b2291e5b200ac8c7c3b92560405160405180910390a45050565b6131ee8282611656565b613264576131fb8161428e565b613208835f1c60206142bb565b60405160200161321992919061698f565b6040516020818303038152906040526040517f08c379a000000000000000000000000000000000000000000000000000000000815260040161325b919061502c565b60405180910390fd5b5050565b61327c8160116135a690919063ffffffff16565b156132be57806040517fbb9b42200000000000000000000000000000000000000000000000000000000081526004016132b59190615179565b60405180910390fd5b6132c882826144f0565b5050565b600b5f8281526020019081526020015f205f8154809291906132ed906161bc565b91905055506132fd83838361450d565b505050565b61330c8282611656565b6133d8576001805f8481526020019081526020015f205f015f8373ffffffffffffffffffffffffffffffffffffffff1673ffffffffffffffffffffffffffffffffffffffff1681526020019081526020015f205f6101000a81548160ff02191690831515021790555061337d611ea3565b73ffffffffffffffffffffffffffffffffffffffff168173ffffffffffffffffffffffffffffffffffffffff16837f2f8788117e7eff1d82e926ec794901d17c78024a50270940304540a733656f0d60405160405180910390a45b5050565b5f613401835f018373ffffffffffffffffffffffffffffffffffffffff165f1b6147f9565b905092915050565b5f7f8b73c3c69bb8fe3d512ecc4cf759cc79239f7b179b0ffacaa9a75d522b39400f7f00000000000000000000000000000000000000000000000000000000000000007f000000000000000000000000000000000000000000000000000000000000000046306040516020016134839594939291906169c8565b60405160208183030381529060405280519060200120905090565b6134a88282611656565b15613575575f60015f8481526020019081526020015f205f015f8373ffffffffffffffffffffffffffffffffffffffff1673ffffffffffffffffffffffffffffffffffffffff1681526020019081526020015f205f6101000a81548160ff02191690831515021790555061351a611ea3565b73ffffffffffffffffffffffffffffffffffffffff168173ffffffffffffffffffffffffffffffffffffffff16837ff6391f5c32d9c69d2a47ea670b442974b53935d1edc7fd64eb21e047a839171b60405160405180910390a45b5050565b5f61359e835f018373ffffffffffffffffffffffffffffffffffffffff165f1b614860565b905092915050565b5f5f600883901c90505f60ff84166001901b90505f81865f015f8581526020019081526020015f20541614159250505092915050565b5f73ffffffffffffffffffffffffffffffffffffffff168273ffffffffffffffffffffffffffffffffffffffff160361364a576040517f08c379a000000000000000000000000000000000000000000000000000000000815260040161364190616a63565b60405180910390fd5b613653816130ee565b15613693576040517f08c379a000000000000000000000000000000000000000000000000000000000815260040161368a90616acb565b60405180910390fd5b6136a05f8383600161495c565b6136a9816130ee565b156136e9576040517f08c379a00000000000000000000000000000000000000000000000000000000081526004016136e090616acb565b60405180910390fd5b600160065f8473ffffffffffffffffffffffffffffffffffffffff1673ffffffffffffffffffffffffffffffffffffffff1681526020019081526020015f205f82825401925050819055508160055f8381526020019081526020015f205f6101000a81548173ffffffffffffffffffffffffffffffffffffffff021916908373ffffffffffffffffffffffffffffffffffffffff160217905550808273ffffffffffffffffffffffffffffffffffffffff165f73ffffffffffffffffffffffffffffffffffffffff167fddf252ad1be2c89b69c2b068fc378daa952ba7f163c4a11628f55a4df523b3ef60405160405180910390a46137eb5f83836001614962565b5050565b5f6137f9826112f4565b9050613808815f84600161495c565b613811826112f4565b905060075f8381526020019081526020015f205f6101000a81549073ffffffffffffffffffffffffffffffffffffffff0219169055600160065f8373ffffffffffffffffffffffffffffffffffffffff1673ffffffffffffffffffffffffffffffffffffffff1681526020019081526020015f205f828254039250508190555060055f8381526020019081526020015f205f6101000a81549073ffffffffffffffffffffffffffffffffffffffff0219169055815f73ffffffffffffffffffffffffffffffffffffffff168273ffffffffffffffffffffffffffffffffffffffff167fddf252ad1be2c89b69c2b068fc378daa952ba7f163c4a11628f55a4df523b3ef60405160405180910390a461392c815f846001614962565b5050565b5f61399d60405160200161394390616ba3565b604051602081830303815290604052805190602001208585600b5f8881526020019081526020015f205486604051602001613982959493929190616bc2565b60405160208183030381529060405280519060200120614968565b90509392505050565b5f5f5f8573ffffffffffffffffffffffffffffffffffffffff16631626ba7e60e01b86866040516024016139db929190616c5b565b604051602081830303815290604052907bffffffffffffffffffffffffffffffffffffffffffffffffffffffff19166020820180517bffffffffffffffffffffffffffffffffffffffffffffffffffffffff8381831617835250505050604051613a459190616cc3565b5f60405180830381855afa9150503d805f8114613a7d576040519150601f19603f3d011682016040523d82523d5f602084013e613a82565b606091505b5091509150818015613a95575060208151145b15613b0b575f81806020019051810190613aaf9190616ced565b9050631626ba7e60e01b7bffffffffffffffffffffffffffffffffffffffffffffffffffffffff1916817bffffffffffffffffffffffffffffffffffffffffffffffffffffffff191603613b095760019350505050613b11565b505b5f925050505b9392505050565b606081601f83613b289190616649565b1015613b69576040517f08c379a0000000000000000000000000000000000000000000000000000000008152600401613b6090616d62565b60405180910390fd5b8183613b759190616649565b84511015613bb8576040517f08c379a0000000000000000000000000000000000000000000000000000000008152600401613baf90616dca565b60405180910390fd5b606082155f8114613bd75760405191505f825260208201604052613c28565b6040519150601f8416801560200281840101858101878315602002848b0101015b81831015613c155780518352602083019250602081019050613bf8565b50868552601f19601f8301166040525050505b50809150509392505050565b5f5f5f613c42868686614981565b91509150613c4f816149db565b81925050509392505050565b5f5f5f613c688585614b40565b91509150613c75816149db565b819250505092915050565b5f5f73ffffffffffffffffffffffffffffffffffffffff168373ffffffffffffffffffffffffffffffffffffffff1614158015613cc35750613cc283836121d3565b5b905092915050565b60605f613cd783614b8c565b90505f602067ffffffffffffffff811115613cf557613cf4615662565b5b6040519080825280601f01601f191660200182016040528015613d275781602001600182028036833780820191505090505b5090508181528360208201528092505050919050565b5f825f018281548110613d5357613d52615de1565b5b905f5260205f200154905092915050565b5f613d848473ffffffffffffffffffffffffffffffffffffffff16614bda565b15613ed9578373ffffffffffffffffffffffffffffffffffffffff1663150b7a02613dad611ea3565b8786866040518563ffffffff1660e01b8152600401613dcf9493929190616de8565b6020604051808303815f875af1925050508015613e0a57506040513d601f19601f82011682018060405250810190613e079190616ced565b60015b613e89573d805f8114613e38576040519150601f19603f3d011682016040523d82523d5f602084013e613e3d565b606091505b505f815103613e81576040517f08c379a0000000000000000000000000000000000000000000000000000000008152600401613e78906168dd565b60405180910390fd5b805181602001fd5b63150b7a0260e01b7bffffffffffffffffffffffffffffffffffffffffffffffffffffffff1916817bffffffffffffffffffffffffffffffffffffffffffffffffffffffff191614915050613ede565b600190505b949350505050565b8173ffffffffffffffffffffffffffffffffffffffff168373ffffffffffffffffffffffffffffffffffffffff1603613f54576040517f08c379a0000000000000000000000000000000000000000000000000000000008152600401613f4b90616e7c565b60405180910390fd5b8060085f8573ffffffffffffffffffffffffffffffffffffffff1673ffffffffffffffffffffffffffffffffffffffff1681526020019081526020015f205f8473ffffffffffffffffffffffffffffffffffffffff1673ffffffffffffffffffffffffffffffffffffffff1681526020019081526020015f205f6101000a81548160ff0219169083151502179055508173ffffffffffffffffffffffffffffffffffffffff168373ffffffffffffffffffffffffffffffffffffffff167f17307eab39ab6107e8899845ad3d59bd9653f200f220920489ca2b5937696c31836040516140409190614fa3565b60405180910390a3505050565b5f5f5f90507a184f03e93ff9f4daa797ed6e38ed64bf6a1f01000000000000000083106140a9577a184f03e93ff9f4daa797ed6e38ed64bf6a1f010000000000000000838161409f5761409e6160aa565b5b0492506040810190505b6d04ee2d6d415b85acef810000000083106140e6576d04ee2d6d415b85acef810000000083816140dc576140db6160aa565b5b0492506020810190505b662386f26fc10000831061411557662386f26fc10000838161410b5761410a6160aa565b5b0492506010810190505b6305f5e100831061413e576305f5e1008381614134576141336160aa565b5b0492506008810190505b6127108310614163576127108381614159576141586160aa565b5b0492506004810190505b60648310614186576064838161417c5761417b6160aa565b5b0492506002810190505b600a8310614195576001810190505b80915050919050565b5f815f01805490509050919050565b5f7f80ac58cd000000000000000000000000000000000000000000000000000000007bffffffffffffffffffffffffffffffffffffffffffffffffffffffff1916827bffffffffffffffffffffffffffffffffffffffffffffffffffffffff1916148061427757507f5b5e139f000000000000000000000000000000000000000000000000000000007bffffffffffffffffffffffffffffffffffffffffffffffffffffffff1916827bffffffffffffffffffffffffffffffffffffffffffffffffffffffff1916145b80614287575061428682614bfc565b5b9050919050565b60606142b48273ffffffffffffffffffffffffffffffffffffffff16601460ff166142bb565b9050919050565b60605f60028360026142cd9190616069565b6142d79190616649565b67ffffffffffffffff8111156142f0576142ef615662565b5b6040519080825280601f01601f1916602001820160405280156143225781602001600182028036833780820191505090505b5090507f3000000000000000000000000000000000000000000000000000000000000000815f8151811061435957614358615de1565b5b60200101907effffffffffffffffffffffffffffffffffffffffffffffffffffffffffffff191690815f1a9053507f7800000000000000000000000000000000000000000000000000000000000000816001815181106143bc576143bb615de1565b5b60200101907effffffffffffffffffffffffffffffffffffffffffffffffffffffffffffff191690815f1a9053505f60018460026143fa9190616069565b6144049190616649565b90505b60018111156144a3577f3031323334353637383961626364656600000000000000000000000000000000600f86166010811061444657614445615de1565b5b1a60f81b82828151811061445d5761445c615de1565b5b60200101907effffffffffffffffffffffffffffffffffffffffffffffffffffffffffffff191690815f1a905350600485901c94508061449c90616203565b9050614407565b505f84146144e6576040517f08c379a00000000000000000000000000000000000000000000000000000000081526004016144dd90616ee4565b60405180910390fd5b8091505092915050565b614509828260405180602001604052805f815250612e3c565b5050565b8273ffffffffffffffffffffffffffffffffffffffff1661452d826112f4565b73ffffffffffffffffffffffffffffffffffffffff1614614583576040517f08c379a000000000000000000000000000000000000000000000000000000000815260040161457a90616f72565b60405180910390fd5b5f73ffffffffffffffffffffffffffffffffffffffff168273ffffffffffffffffffffffffffffffffffffffff16036145f1576040517f08c379a00000000000000000000000000000000000000000000000000000000081526004016145e890617000565b60405180910390fd5b6145fe838383600161495c565b8273ffffffffffffffffffffffffffffffffffffffff1661461e826112f4565b73ffffffffffffffffffffffffffffffffffffffff1614614674576040517f08c379a000000000000000000000000000000000000000000000000000000000815260040161466b90616f72565b60405180910390fd5b60075f8281526020019081526020015f205f6101000a81549073ffffffffffffffffffffffffffffffffffffffff0219169055600160065f8573ffffffffffffffffffffffffffffffffffffffff1673ffffffffffffffffffffffffffffffffffffffff1681526020019081526020015f205f8282540392505081905550600160065f8473ffffffffffffffffffffffffffffffffffffffff1673ffffffffffffffffffffffffffffffffffffffff1681526020019081526020015f205f82825401925050819055508160055f8381526020019081526020015f205f6101000a81548173ffffffffffffffffffffffffffffffffffffffff021916908373ffffffffffffffffffffffffffffffffffffffff160217905550808273ffffffffffffffffffffffffffffffffffffffff168473ffffffffffffffffffffffffffffffffffffffff167fddf252ad1be2c89b69c2b068fc378daa952ba7f163c4a11628f55a4df523b3ef60405160405180910390a46147f48383836001614962565b505050565b5f6148048383614c75565b61485657825f0182908060018154018082558091505060019003905f5260205f20015f9091909190915055825f0180549050836001015f8481526020019081526020015f20819055506001905061485a565b5f90505b92915050565b5f5f836001015f8481526020019081526020015f205490505f8114614951575f60018261488d919061701e565b90505f6001865f01805490506148a3919061701e565b9050818114614909575f865f0182815481106148c2576148c1615de1565b5b905f5260205f200154905080875f0184815481106148e3576148e2615de1565b5b905f5260205f20018190555083876001015f8381526020019081526020015f2081905550505b855f0180548061491c5761491b617051565b5b600190038181905f5260205f20015f90559055856001015f8681526020019081526020015f205f905560019350505050614956565b5f9150505b92915050565b50505050565b50505050565b5f61497a6149746125c5565b83614c95565b9050919050565b5f5f5f7f7fffffffffffffffffffffffffffffffffffffffffffffffffffffffffffffff5f1b841690505f601b60ff865f1c901c6149bf9190616649565b90506149cd87828885614cd5565b935093505050935093915050565b5f60048111156149ee576149ed61707e565b5b816004811115614a0157614a0061707e565b5b0315614b3d5760016004811115614a1b57614a1a61707e565b5b816004811115614a2e57614a2d61707e565b5b03614a6e576040517f08c379a0000000000000000000000000000000000000000000000000000000008152600401614a65906170f5565b60405180910390fd5b60026004811115614a8257614a8161707e565b5b816004811115614a9557614a9461707e565b5b03614ad5576040517f08c379a0000000000000000000000000000000000000000000000000000000008152600401614acc9061715d565b60405180910390fd5b60036004811115614ae957614ae861707e565b5b816004811115614afc57614afb61707e565b5b03614b3c576040517f08c379a0000000000000000000000000000000000000000000000000000000008152600401614b33906171eb565b60405180910390fd5b5b50565b5f5f6041835103614b7d575f5f5f602086015192506040860151915060608601515f1a9050614b7187828585614cd5565b94509450505050614b85565b5f6002915091505b9250929050565b5f5f60ff835f1c169050601f811115614bd1576040517fb3512b0c00000000000000000000000000000000000000000000000000000000815260040160405180910390fd5b80915050919050565b5f5f8273ffffffffffffffffffffffffffffffffffffffff163b119050919050565b5f7f5a05180f000000000000000000000000000000000000000000000000000000007bffffffffffffffffffffffffffffffffffffffffffffffffffffffff1916827bffffffffffffffffffffffffffffffffffffffffffffffffffffffff19161480614c6e5750614c6d82614dad565b5b9050919050565b5f5f836001015f8481526020019081526020015f20541415905092915050565b5f6040517f190100000000000000000000000000000000000000000000000000000000000081528360028201528260228201526042812091505092915050565b5f5f7f7fffffffffffffffffffffffffffffff5d576e7357a4501ddfe92f46681b20a0835f1c1115614d0d575f600391509150614da4565b5f6001878787876040515f8152602001604052604051614d309493929190617224565b6020604051602081039080840390855afa158015614d50573d5f5f3e3d5ffd5b5050506020604051035190505f73ffffffffffffffffffffffffffffffffffffffff168173ffffffffffffffffffffffffffffffffffffffff1603614d9c575f60019250925050614da4565b805f92509250505b94509492505050565b5f7f7965db0b000000000000000000000000000000000000000000000000000000007bffffffffffffffffffffffffffffffffffffffffffffffffffffffff1916827bffffffffffffffffffffffffffffffffffffffffffffffffffffffff19161480614e1f5750614e1e82614e26565b5b9050919050565b5f7f01ffc9a7000000000000000000000000000000000000000000000000000000007bffffffffffffffffffffffffffffffffffffffffffffffffffffffff1916827bffffffffffffffffffffffffffffffffffffffffffffffffffffffff1916149050919050565b5f604051905090565b5f5ffd5b5f5ffd5b5f5ffd5b5f60608284031215614eb957614eb8614ea0565b5b81905092915050565b5f60208284031215614ed757614ed6614e98565b5b5f82013567ffffffffffffffff811115614ef457614ef3614e9c565b5b614f0084828501614ea4565b91505092915050565b5f7fffffffff0000000000000000000000000000000000000000000000000000000082169050919050565b614f3d81614f09565b8114614f47575f5ffd5b50565b5f81359050614f5881614f34565b92915050565b5f60208284031215614f7357614f72614e98565b5b5f614f8084828501614f4a565b91505092915050565b5f8115159050919050565b614f9d81614f89565b82525050565b5f602082019050614fb65f830184614f94565b92915050565b5f81519050919050565b5f82825260208201905092915050565b8281835e5f83830152505050565b5f601f19601f8301169050919050565b5f614ffe82614fbc565b6150088185614fc6565b9350615018818560208601614fd6565b61502181614fe4565b840191505092915050565b5f6020820190508181035f8301526150448184614ff4565b905092915050565b5f819050919050565b61505e8161504c565b8114615068575f5ffd5b50565b5f8135905061507981615055565b92915050565b5f6020828403121561509457615093614e98565b5b5f6150a18482850161506b565b91505092915050565b5f73ffffffffffffffffffffffffffffffffffffffff82169050919050565b5f6150d3826150aa565b9050919050565b6150e3816150c9565b82525050565b5f6020820190506150fc5f8301846150da565b92915050565b61510b816150c9565b8114615115575f5ffd5b50565b5f8135905061512681615102565b92915050565b5f5f6040838503121561514257615141614e98565b5b5f61514f85828601615118565b92505060206151608582860161506b565b9150509250929050565b6151738161504c565b82525050565b5f60208201905061518c5f83018461516a565b92915050565b5f5ffd5b5f5ffd5b5f5ffd5b5f5f83601f8401126151b3576151b2615192565b5b8235905067ffffffffffffffff8111156151d0576151cf615196565b5b6020830191508360208202830111156151ec576151eb61519a565b5b9250929050565b5f5f6020838503121561520957615208614e98565b5b5f83013567ffffffffffffffff81111561522657615225614e9c565b5b6152328582860161519e565b92509250509250929050565b5f5f5f6060848603121561525557615254614e98565b5b5f61526286828701615118565b935050602061527386828701615118565b92505060406152848682870161506b565b9150509250925092565b5f819050919050565b6152a08161528e565b81146152aa575f5ffd5b50565b5f813590506152bb81615297565b92915050565b5f602082840312156152d6576152d5614e98565b5b5f6152e3848285016152ad565b91505092915050565b6152f58161528e565b82525050565b5f60208201905061530e5f8301846152ec565b92915050565b5f819050919050565b5f61533761533261532d846150aa565b615314565b6150aa565b9050919050565b5f6153488261531d565b9050919050565b5f6153598261533e565b9050919050565b6153698161534f565b82525050565b5f6020820190506153825f830184615360565b92915050565b5f5f6040838503121561539e5761539d614e98565b5b5f6153ab8582860161506b565b92505060206153bc8582860161506b565b9150509250929050565b5f6040820190506153d95f8301856150da565b6153e6602083018461516a565b9392505050565b5f5f6040838503121561540357615402614e98565b5b5f615410858286016152ad565b925050602061542185828601615118565b9150509250929050565b5f81519050919050565b5f82825260208201905092915050565b5f819050602082019050919050565b61545d816150c9565b82525050565b5f61546e8383615454565b60208301905092915050565b5f602082019050919050565b5f6154908261542b565b61549a8185615435565b93506154a583615445565b805f5b838110156154d55781516154bc8882615463565b97506154c78361547a565b9250506001810190506154a8565b5085935050505092915050565b5f6020820190508181035f8301526154fa8184615486565b905092915050565b5f6020828403121561551757615516614e98565b5b5f61552484828501615118565b91505092915050565b5f5f83601f84011261554257615541615192565b5b8235905067ffffffffffffffff81111561555f5761555e615196565b5b60208301915083602082028301111561557b5761557a61519a565b5b9250929050565b5f5f6020838503121561559857615597614e98565b5b5f83013567ffffffffffffffff8111156155b5576155b4614e9c565b5b6155c18582860161552d565b92509250509250929050565b5f6bffffffffffffffffffffffff82169050919050565b6155ed816155cd565b81146155f7575f5ffd5b50565b5f81359050615608816155e4565b92915050565b5f5f5f6060848603121561562557615624614e98565b5b5f6156328682870161506b565b935050602061564386828701615118565b9250506040615654868287016155fa565b9150509250925092565b5f5ffd5b7f4e487b71000000000000000000000000000000000000000000000000000000005f52604160045260245ffd5b61569882614fe4565b810181811067ffffffffffffffff821117156156b7576156b6615662565b5b80604052505050565b5f6156c9614e8f565b90506156d5828261568f565b919050565b5f67ffffffffffffffff8211156156f4576156f3615662565b5b6156fd82614fe4565b9050602081019050919050565b828183375f83830152505050565b5f61572a615725846156da565b6156c0565b9050828152602081018484840111156157465761574561565e565b5b61575184828561570a565b509392505050565b5f82601f83011261576d5761576c615192565b5b813561577d848260208601615718565b91505092915050565b5f6020828403121561579b5761579a614e98565b5b5f82013567ffffffffffffffff8111156157b8576157b7614e9c565b5b6157c484828501615759565b91505092915050565b5f67ffffffffffffffff8211156157e7576157e6615662565b5b6157f082614fe4565b9050602081019050919050565b5f61580f61580a846157cd565b6156c0565b90508281526020810184848401111561582b5761582a61565e565b5b61583684828561570a565b509392505050565b5f82601f83011261585257615851615192565b5b81356158628482602086016157fd565b91505092915050565b5f5f5f5f6080858703121561588357615882614e98565b5b5f61589087828801615118565b94505060206158a18782880161506b565b93505060406158b28782880161506b565b925050606085013567ffffffffffffffff8111156158d3576158d2614e9c565b5b6158df8782880161583e565b91505092959194509250565b5f7fff0000000000000000000000000000000000000000000000000000000000000082169050919050565b61591f816158eb565b82525050565b5f81519050919050565b5f82825260208201905092915050565b5f819050602082019050919050565b6159578161504c565b82525050565b5f615968838361594e565b60208301905092915050565b5f602082019050919050565b5f61598a82615925565b615994818561592f565b935061599f8361593f565b805f5b838110156159cf5781516159b6888261595d565b97506159c183615974565b9250506001810190506159a2565b5085935050505092915050565b5f60e0820190506159ef5f83018a615916565b8181036020830152615a018189614ff4565b90508181036040830152615a158188614ff4565b9050615a24606083018761516a565b615a3160808301866150da565b615a3e60a08301856152ec565b81810360c0830152615a508184615980565b905098975050505050505050565b5f5f60408385031215615a7457615a73614e98565b5b5f615a8185828601615118565b9250506020615a92858286016155fa565b9150509250929050565b5f5f60408385031215615ab257615ab1614e98565b5b5f615abf858286016152ad565b9250506020615ad08582860161506b565b9150509250929050565b615ae381614f89565b8114615aed575f5ffd5b50565b5f81359050615afe81615ada565b92915050565b5f5f60408385031215615b1a57615b19614e98565b5b5f615b2785828601615118565b9250506020615b3885828601615af0565b9150509250929050565b5f5f83601f840112615b5757615b56615192565b5b8235905067ffffffffffffffff811115615b7457615b73615196565b5b602083019150836020820283011115615b9057615b8f61519a565b5b9250929050565b5f5f5f5f60608587031215615baf57615bae614e98565b5b5f85013567ffffffffffffffff811115615bcc57615bcb614e9c565b5b615bd887828801615b42565b94509450506020615beb87828801615118565b9250506040615bfc878288016155fa565b91505092959194509250565b5f5f5f5f60808587031215615c2057615c1f614e98565b5b5f615c2d87828801615118565b9450506020615c3e87828801615118565b9350506040615c4f8782880161506b565b925050606085013567ffffffffffffffff811115615c7057615c6f614e9c565b5b615c7c8782880161583e565b91505092959194509250565b5f5f60208385031215615c9e57615c9d614e98565b5b5f83013567ffffffffffffffff811115615cbb57615cba614e9c565b5b615cc785828601615b42565b92509250509250929050565b5f5f60408385031215615ce957615ce8614e98565b5b5f615cf685828601615118565b9250506020615d0785828601615118565b9150509250929050565b5f5ffd5b5f5ffd5b5f5ffd5b5f5f83356001602003843603038112615d3957615d38615d11565b5b80840192508235915067ffffffffffffffff821115615d5b57615d5a615d15565b5b602083019250602082023603831315615d7757615d76615d19565b5b509250929050565b5f5f83356001602003843603038112615d9b57615d9a615d11565b5b80840192508235915067ffffffffffffffff821115615dbd57615dbc615d15565b5b602083019250602082023603831315615dd957615dd8615d19565b5b509250929050565b7f4e487b71000000000000000000000000000000000000000000000000000000005f52603260045260245ffd5b7f4e487b71000000000000000000000000000000000000000000000000000000005f52602260045260245ffd5b5f6002820490506001821680615e5257607f821691505b602082108103615e6557615e64615e0e565b5b50919050565b7f4552433732313a20617070726f76616c20746f2063757272656e74206f776e655f8201527f7200000000000000000000000000000000000000000000000000000000000000602082015250565b5f615ec5602183614fc6565b9150615ed082615e6b565b604082019050919050565b5f6020820190508181035f830152615ef281615eb9565b9050919050565b7f4552433732313a20617070726f76652063616c6c6572206973206e6f7420746f5f8201527f6b656e206f776e6572206f7220617070726f76656420666f7220616c6c000000602082015250565b5f615f53603d83614fc6565b9150615f5e82615ef9565b604082019050919050565b5f6020820190508181035f830152615f8081615f47565b9050919050565b5f82356001604003833603038112615fa257615fa1615d11565b5b80830191505092915050565b7f4552433732313a2063616c6c6572206973206e6f7420746f6b656e206f776e655f8201527f72206f7220617070726f76656400000000000000000000000000000000000000602082015250565b5f616008602d83614fc6565b915061601382615fae565b604082019050919050565b5f6020820190508181035f83015261603581615ffc565b9050919050565b7f4e487b71000000000000000000000000000000000000000000000000000000005f52601160045260245ffd5b5f6160738261504c565b915061607e8361504c565b925082820261608c8161504c565b915082820484148315176160a3576160a261603c565b5b5092915050565b7f4e487b71000000000000000000000000000000000000000000000000000000005f52601260045260245ffd5b5f6160e18261504c565b91506160ec8361504c565b9250826160fc576160fb6160aa565b5b828204905092915050565b7f416363657373436f6e74726f6c3a2063616e206f6e6c792072656e6f756e63655f8201527f20726f6c657320666f722073656c660000000000000000000000000000000000602082015250565b5f616161602f83614fc6565b915061616c82616107565b604082019050919050565b5f6020820190508181035f83015261618e81616155565b9050919050565b5f823560016040038336030381126161b0576161af615d11565b5b80830191505092915050565b5f6161c68261504c565b91507fffffffffffffffffffffffffffffffffffffffffffffffffffffffffffffffff82036161f8576161f761603c565b5b600182019050919050565b5f61620d8261504c565b91505f820361621f5761621e61603c565b5b600182039050919050565b5f819050815f5260205f209050919050565b5f6020601f8301049050919050565b5f82821b905092915050565b5f600883026162867fffffffffffffffffffffffffffffffffffffffffffffffffffffffffffffffff8261624b565b616290868361624b565b95508019841693508086168417925050509392505050565b5f6162c26162bd6162b88461504c565b615314565b61504c565b9050919050565b5f819050919050565b6162db836162a8565b6162ef6162e7826162c9565b848454616257565b825550505050565b5f5f905090565b6163066162f7565b6163118184846162d2565b505050565b5b81811015616334576163295f826162fe565b600181019050616317565b5050565b601f8211156163795761634a8161622a565b6163538461623c565b81016020851015616362578190505b61637661636e8561623c565b830182616316565b50505b505050565b5f82821c905092915050565b5f6163995f198460080261637e565b1980831691505092915050565b5f6163b1838361638a565b9150826002028217905092915050565b6163ca82614fbc565b67ffffffffffffffff8111156163e3576163e2615662565b5b6163ed8254615e3b565b6163f8828285616338565b5f60209050601f831160018114616429575f8415616417578287015190505b61642185826163a6565b865550616488565b601f1984166164378661622a565b5f5b8281101561645e57848901518255600182019150602085019450602081019050616439565b8683101561647b5784890151616477601f89168261638a565b8355505b6001600288020188555050505b505050505050565b7f4552433732313a20696e76616c696420746f6b656e20494400000000000000005f82015250565b5f6164c4601883614fc6565b91506164cf82616490565b602082019050919050565b5f6020820190508181035f8301526164f1816164b8565b9050919050565b7f4552433732313a2061646472657373207a65726f206973206e6f7420612076615f8201527f6c6964206f776e65720000000000000000000000000000000000000000000000602082015250565b5f616552602983614fc6565b915061655d826164f8565b604082019050919050565b5f6020820190508181035f83015261657f81616546565b9050919050565b5f6040820190506165995f83018561516a565b6165a660208301846150da565b9392505050565b5f815190506165bb81615ada565b92915050565b5f602082840312156165d6576165d5614e98565b5b5f6165e3848285016165ad565b91505092915050565b5f81905092915050565b5f61660082614fbc565b61660a81856165ec565b935061661a818560208601614fd6565b80840191505092915050565b5f61663182856165f6565b915061663d82846165f6565b91508190509392505050565b5f6166538261504c565b915061665e8361504c565b92508282019050808211156166765761667561603c565b5b92915050565b7f455243323938313a20726f79616c7479206665652077696c6c206578636565645f8201527f2073616c65507269636500000000000000000000000000000000000000000000602082015250565b5f6166d6602a83614fc6565b91506166e18261667c565b604082019050919050565b5f6020820190508181035f830152616703816166ca565b9050919050565b7f455243323938313a20496e76616c696420706172616d657465727300000000005f82015250565b5f61673e601b83614fc6565b91506167498261670a565b602082019050919050565b5f6020820190508181035f83015261676b81616732565b9050919050565b5f81519050919050565b5f819050602082019050919050565b5f616796825161528e565b80915050919050565b5f6167a982616772565b826167b38461677c565b90506167be8161678b565b925060208210156167fe576167f97fffffffffffffffffffffffffffffffffffffffffffffffffffffffffffffffff8360200360080261624b565b831692505b5050919050565b7f455243323938313a20696e76616c6964207265636569766572000000000000005f82015250565b5f616839601983614fc6565b915061684482616805565b602082019050919050565b5f6020820190508181035f8301526168668161682d565b9050919050565b7f4552433732313a207472616e7366657220746f206e6f6e2045524337323152655f8201527f63656976657220696d706c656d656e7465720000000000000000000000000000602082015250565b5f6168c7603283614fc6565b91506168d28261686d565b604082019050919050565b5f6020820190508181035f8301526168f4816168bb565b9050919050565b7f416363657373436f6e74726f6c3a206163636f756e74200000000000000000005f82015250565b5f61692f6017836165ec565b915061693a826168fb565b601782019050919050565b7f206973206d697373696e6720726f6c65200000000000000000000000000000005f82015250565b5f6169796011836165ec565b915061698482616945565b601182019050919050565b5f61699982616923565b91506169a582856165f6565b91506169b08261696d565b91506169bc82846165f6565b91508190509392505050565b5f60a0820190506169db5f8301886152ec565b6169e860208301876152ec565b6169f560408301866152ec565b616a02606083018561516a565b616a0f60808301846150da565b9695505050505050565b7f4552433732313a206d696e7420746f20746865207a65726f20616464726573735f82015250565b5f616a4d602083614fc6565b9150616a5882616a19565b602082019050919050565b5f6020820190508181035f830152616a7a81616a41565b9050919050565b7f4552433732313a20746f6b656e20616c7265616479206d696e746564000000005f82015250565b5f616ab5601c83614fc6565b9150616ac082616a81565b602082019050919050565b5f6020820190508181035f830152616ae281616aa9565b9050919050565b7f5065726d697428000000000000000000000000000000000000000000000000005f82015250565b5f616b1d6007836165ec565b9150616b2882616ae9565b600782019050919050565b7f61646472657373207370656e6465722c75696e7432353620746f6b656e49642c5f8201527f75696e74323536206e6f6e63652c75696e7432353620646561646c696e652900602082015250565b5f616b8d603f836165ec565b9150616b9882616b33565b603f82019050919050565b5f616bad82616b11565b9150616bb882616b81565b9150819050919050565b5f60a082019050616bd55f8301886152ec565b616be260208301876150da565b616bef604083018661516a565b616bfc606083018561516a565b616c09608083018461516a565b9695505050505050565b5f82825260208201905092915050565b5f616c2d82616772565b616c378185616c13565b9350616c47818560208601614fd6565b616c5081614fe4565b840191505092915050565b5f604082019050616c6e5f8301856152ec565b8181036020830152616c808184616c23565b90509392505050565b5f81905092915050565b5f616c9d82616772565b616ca78185616c89565b9350616cb7818560208601614fd6565b80840191505092915050565b5f616cce8284616c93565b915081905092915050565b5f81519050616ce781614f34565b92915050565b5f60208284031215616d0257616d01614e98565b5b5f616d0f84828501616cd9565b91505092915050565b7f736c6963655f6f766572666c6f770000000000000000000000000000000000005f82015250565b5f616d4c600e83614fc6565b9150616d5782616d18565b602082019050919050565b5f6020820190508181035f830152616d7981616d40565b9050919050565b7f736c6963655f6f75744f66426f756e64730000000000000000000000000000005f82015250565b5f616db4601183614fc6565b9150616dbf82616d80565b602082019050919050565b5f6020820190508181035f830152616de181616da8565b9050919050565b5f608082019050616dfb5f8301876150da565b616e0860208301866150da565b616e15604083018561516a565b8181036060830152616e278184616c23565b905095945050505050565b7f4552433732313a20617070726f766520746f2063616c6c6572000000000000005f82015250565b5f616e66601983614fc6565b9150616e7182616e32565b602082019050919050565b5f6020820190508181035f830152616e9381616e5a565b9050919050565b7f537472696e67733a20686578206c656e67746820696e73756666696369656e745f82015250565b5f616ece602083614fc6565b9150616ed982616e9a565b602082019050919050565b5f6020820190508181035f830152616efb81616ec2565b9050919050565b7f4552433732313a207472616e736665722066726f6d20696e636f7272656374205f8201527f6f776e6572000000000000000000000000000000000000000000000000000000602082015250565b5f616f5c602583614fc6565b9150616f6782616f02565b604082019050919050565b5f6020820190508181035f830152616f8981616f50565b9050919050565b7f4552433732313a207472616e7366657220746f20746865207a65726f206164645f8201527f7265737300000000000000000000000000000000000000000000000000000000602082015250565b5f616fea602483614fc6565b9150616ff582616f90565b604082019050919050565b5f6020820190508181035f83015261701781616fde565b9050919050565b5f6170288261504c565b91506170338361504c565b925082820390508181111561704b5761704a61603c565b5b92915050565b7f4e487b71000000000000000000000000000000000000000000000000000000005f52603160045260245ffd5b7f4e487b71000000000000000000000000000000000000000000000000000000005f52602160045260245ffd5b7f45434453413a20696e76616c6964207369676e617475726500000000000000005f82015250565b5f6170df601883614fc6565b91506170ea826170ab565b602082019050919050565b5f6020820190508181035f83015261710c816170d3565b9050919050565b7f45434453413a20696e76616c6964207369676e6174757265206c656e677468005f82015250565b5f617147601f83614fc6565b915061715282617113565b602082019050919050565b5f6020820190508181035f8301526171748161713b565b9050919050565b7f45434453413a20696e76616c6964207369676e6174757265202773272076616c5f8201527f7565000000000000000000000000000000000000000000000000000000000000602082015250565b5f6171d5602283614fc6565b91506171e08261717b565b604082019050919050565b5f6020820190508181035f830152617202816171c9565b9050919050565b5f60ff82169050919050565b61721e81617209565b82525050565b5f6080820190506172375f8301876152ec565b6172446020830186617215565b61725160408301856152ec565b61725e60608301846152ec565b9594505050505056fea2646970667358221220448ed7a66424aa8c9244eaa0191b83a4d99b2fa307e43d7083cdf063e287274d64736f6c634300081c0033","linkReferences":{}},"methodIdentifiers":{"DEFAULT_ADMIN_ROLE()":"a217fddf","DOMAIN_SEPARATOR()":"3644e515","MINTER_ROLE()":"d5391393","_safeBurnBatch((address,uint256[])[])":"3e769acd","_totalSupply()":"3eaaf86b","approve(address,uint256)":"095ea7b3","balanceOf(address)":"70a08231","baseURI()":"6c0360eb","burn(uint256)":"42966c68","burnBatch(uint256[])":"e4623c1b","contractURI()":"e8a3d485","eip712Domain()":"84b0196e","getAdmins()":"31ae450b","getApproved(uint256)":"081812fc","getRoleAdmin(bytes32)":"248a9ca3","getRoleMember(bytes32,uint256)":"9010d07c","getRoleMemberCount(bytes32)":"ca15c873","grantMinterRole(address)":"3dd1eb61","grantRole(bytes32,address)":"2f2ff15d","hasRole(bytes32,address)":"91d14854","isApprovedForAll(address,address)":"e985e9c5","mint(address,uint256)":"40c10f19","mintBatch((address,uint256[])[])":"9e2641a3","name()":"06fdde03","nonces(uint256)":"141a468c","operatorAllowlist()":"29326f29","ownerOf(uint256)":"6352211e","permit(address,uint256,uint256,bytes)":"745a41bc","renounceRole(bytes32,address)":"36568abe","revokeMinterRole(address)":"69e2f0fb","revokeRole(bytes32,address)":"d547741f","royaltyInfo(uint256,uint256)":"2a55205a","safeBurn(address,uint256)":"9f15d700","safeBurnBatch((address,uint256[])[])":"74f16a81","safeMint(address,uint256)":"a1448194","safeMintBatch((address,uint256[])[])":"234af046","safeTransferFrom(address,address,uint256)":"42842e0e","safeTransferFrom(address,address,uint256,bytes)":"b88d4fde","safeTransferFromBatch((address,address[],uint256[]))":"008ad946","setApprovalForAll(address,bool)":"a22cb465","setBaseURI(string)":"55f804b3","setContractURI(string)":"938e3d7b","setDefaultRoyaltyReceiver(address,uint96)":"885e7a08","setNFTRoyaltyReceiver(uint256,address,uint96)":"439aed34","setNFTRoyaltyReceiverBatch(uint256[],address,uint96)":"a7012816","supportsInterface(bytes4)":"01ffc9a7","symbol()":"95d89b41","tokenURI(uint256)":"c87b56dd","totalSupply()":"18160ddd","transferFrom(address,address,uint256)":"23b872dd"},"id":9}