{"abi":[{"type":"constructor","inputs":[{"name":"owner_","type":"address","internalType":"address"},{"name":"name_","type":"string","internalType":"string"},{"name":"symbol_","type":"string","internalType":"string"},{"name":"baseURI_","type":"string","internalType":"string"},{"name":"contractURI_","type":"string","internalType":"string"},{"name":"operatorAllowlist_","type":"address","internalType":"address"},{"name":"royaltyReceiver_","type":"address","internalType":"address"},{"name":"feeNumerator_","type":"uint96","internalType":"uint96"}],"stateMutability":"nonpayable"},{"type":"fallback","stateMutability":"nonpayable"},{"type":"function","name":"DEFAULT_ADMIN_ROLE","inputs":[],"outputs":[{"name":"","type":"bytes32","internalType":"bytes32"}],"stateMutability":"view"},{"type":"function","name":"DOMAIN_SEPARATOR","inputs":[],"outputs":[{"name":"","type":"bytes32","internalType":"bytes32"}],"stateMutability":"view"},{"type":"function","name":"MINTER_ROLE","inputs":[],"outputs":[{"name":"","type":"bytes32","internalType":"bytes32"}],"stateMutability":"view"},{"type":"function","name":"_safeBurnBatch","inputs":[{"name":"burns","type":"tuple[]","internalType":"struct ImmutableERC721Base.IDBurn[]","components":[{"name":"owner","type":"address","internalType":"address"},{"name":"tokenIds","type":"uint256[]","internalType":"uint256[]"}]}],"outputs":[],"stateMutability":"nonpayable"},{"type":"function","name":"_totalSupply","inputs":[],"outputs":[{"name":"","type":"uint256","internalType":"uint256"}],"stateMutability":"view"},{"type":"function","name":"approve","inputs":[{"name":"to","type":"address","internalType":"address"},{"name":"tokenId","type":"uint256","internalType":"uint256"}],"outputs":[],"stateMutability":"nonpayable"},{"type":"function","name":"balanceOf","inputs":[{"name":"owner","type":"address","internalType":"address"}],"outputs":[{"name":"","type":"uint256","internalType":"uint256"}],"stateMutability":"view"},{"type":"function","name":"baseURI","inputs":[],"outputs":[{"name":"","type":"string","internalType":"string"}],"stateMutability":"view"},{"type":"function","name":"burn","inputs":[{"name":"tokenId","type":"uint256","internalType":"uint256"}],"outputs":[],"stateMutability":"nonpayable"},{"type":"function","name":"burnBatch","inputs":[{"name":"tokenIDs","type":"uint256[]","internalType":"uint256[]"}],"outputs":[],"stateMutability":"nonpayable"},{"type":"function","name":"contractURI","inputs":[],"outputs":[{"name":"","type":"string","internalType":"string"}],"stateMutability":"view"},{"type":"function","name":"eip712Domain","inputs":[],"outputs":[{"name":"fields","type":"bytes1","internalType":"bytes1"},{"name":"name","type":"string","internalType":"string"},{"name":"version","type":"string","internalType":"string"},{"name":"chainId","type":"uint256","internalType":"uint256"},{"name":"verifyingContract","type":"address","internalType":"address"},{"name":"salt","type":"bytes32","internalType":"bytes32"},{"name":"extensions","type":"uint256[]","internalType":"uint256[]"}],"stateMutability":"view"},{"type":"function","name":"getAdmins","inputs":[],"outputs":[{"name":"","type":"address[]","internalType":"address[]"}],"stateMutability":"view"},{"type":"function","name":"getApproved","inputs":[{"name":"tokenId","type":"uint256","internalType":"uint256"}],"outputs":[{"name":"","type":"address","internalType":"address"}],"stateMutability":"view"},{"type":"function","name":"getRoleAdmin","inputs":[{"name":"role","type":"bytes32","internalType":"bytes32"}],"outputs":[{"name":"","type":"bytes32","internalType":"bytes32"}],"stateMutability":"view"},{"type":"function","name":"getRoleMember","inputs":[{"name":"role","type":"bytes32","internalType":"bytes32"},{"name":"index","type":"uint256","internalType":"uint256"}],"outputs":[{"name":"","type":"address","internalType":"address"}],"stateMutability":"view"},{"type":"function","name":"getRoleMemberCount","inputs":[{"name":"role","type":"bytes32","internalType":"bytes32"}],"outputs":[{"name":"","type":"uint256","internalType":"uint256"}],"stateMutability":"view"},{"type":"function","name":"grantMinterRole","inputs":[{"name":"user","type":"address","internalType":"address"}],"outputs":[],"stateMutability":"nonpayable"},{"type":"function","name":"grantRole","inputs":[{"name":"role","type":"bytes32","internalType":"bytes32"},{"name":"account","type":"address","internalType":"address"}],"outputs":[],"stateMutability":"nonpayable"},{"type":"function","name":"hasRole","inputs":[{"name":"role","type":"bytes32","internalType":"bytes32"},{"name":"account","type":"address","internalType":"address"}],"outputs":[{"name":"","type":"bool","internalType":"bool"}],"stateMutability":"view"},{"type":"function","name":"isApprovedForAll","inputs":[{"name":"owner","type":"address","internalType":"address"},{"name":"operator","type":"address","internalType":"address"}],"outputs":[{"name":"","type":"bool","internalType":"bool"}],"stateMutability":"view"},{"type":"function","name":"mint","inputs":[{"name":"to","type":"address","internalType":"address"},{"name":"tokenID","type":"uint256","internalType":"uint256"}],"outputs":[],"stateMutability":"nonpayable"},{"type":"function","name":"mintBatch","inputs":[{"name":"mintRequests","type":"tuple[]","internalType":"struct ImmutableERC721Base.IDMint[]","components":[{"name":"to","type":"address","internalType":"address"},{"name":"tokenIds","type":"uint256[]","internalType":"uint256[]"}]}],"outputs":[],"stateMutability":"nonpayable"},{"type":"function","name":"name","inputs":[],"outputs":[{"name":"","type":"string","internalType":"string"}],"stateMutability":"view"},{"type":"function","name":"nonces","inputs":[{"name":"tokenId","type":"uint256","internalType":"uint256"}],"outputs":[{"name":"","type":"uint256","internalType":"uint256"}],"stateMutability":"view"},{"type":"function","name":"operatorAllowlist","inputs":[],"outputs":[{"name":"","type":"address","internalType":"contract IOperatorAllowlist"}],"stateMutability":"view"},{"type":"function","name":"ownerOf","inputs":[{"name":"tokenId","type":"uint256","internalType":"uint256"}],"outputs":[{"name":"","type":"address","internalType":"address"}],"stateMutability":"view"},{"type":"function","name":"permit","inputs":[{"name":"spender","type":"address","internalType":"address"},{"name":"tokenId","type":"uint256","internalType":"uint256"},{"name":"deadline","type":"uint256","internalType":"uint256"},{"name":"sig","type":"bytes","internalType":"bytes"}],"outputs":[],"stateMutability":"nonpayable"},{"type":"function","name":"renounceRole","inputs":[{"name":"role","type":"bytes32","internalType":"bytes32"},{"name":"account","type":"address","internalType":"address"}],"outputs":[],"stateMutability":"nonpayable"},{"type":"function","name":"revokeMinterRole","inputs":[{"name":"user","type":"address","internalType":"address"}],"outputs":[],"stateMutability":"nonpayable"},{"type":"function","name":"revokeRole","inputs":[{"name":"role","type":"bytes32","internalType":"bytes32"},{"name":"account","type":"address","internalType":"address"}],"outputs":[],"stateMutability":"nonpayable"},{"type":"function","name":"royaltyInfo","inputs":[{"name":"tokenId","type":"uint256","internalType":"uint256"},{"name":"salePrice","type":"uint256","internalType":"uint256"}],"outputs":[{"name":"","type":"address","internalType":"address"},{"name":"","type":"uint256","internalType":"uint256"}],"stateMutability":"view"},{"type":"function","name":"safeBurn","inputs":[{"name":"owner","type":"address","internalType":"address"},{"name":"tokenId","type":"uint256","internalType":"uint256"}],"outputs":[],"stateMutability":"nonpayable"},{"type":"function","name":"safeBurnBatch","inputs":[{"name":"burns","type":"tuple[]","internalType":"struct ImmutableERC721Base.IDBurn[]","components":[{"name":"owner","type":"address","internalType":"address"},{"name":"tokenIds","type":"uint256[]","internalType":"uint256[]"}]}],"outputs":[],"stateMutability":"nonpayable"},{"type":"function","name":"safeMint","inputs":[{"name":"to","type":"address","internalType":"address"},{"name":"tokenID","type":"uint256","internalType":"uint256"}],"outputs":[],"stateMutability":"nonpayable"},{"type":"function","name":"safeMintBatch","inputs":[{"name":"mintRequests","type":"tuple[]","internalType":"struct ImmutableERC721Base.IDMint[]","components":[{"name":"to","type":"address","internalType":"address"},{"name":"tokenIds","type":"uint256[]","internalType":"uint256[]"}]}],"outputs":[],"stateMutability":"nonpayable"},{"type":"function","name":"safeTransferFrom","inputs":[{"name":"from","type":"address","internalType":"address"},{"name":"to","type":"address","internalType":"address"},{"name":"tokenId","type":"uint256","internalType":"uint256"}],"outputs":[],"stateMutability":"nonpayable"},{"type":"function","name":"safeTransferFrom","inputs":[{"name":"from","type":"address","internalType":"address"},{"name":"to","type":"address","internalType":"address"},{"name":"tokenId","type":"uint256","internalType":"uint256"},{"name":"data","type":"bytes","internalType":"bytes"}],"outputs":[],"stateMutability":"nonpayable"},{"type":"function","name":"safeTransferFromBatch","inputs":[{"name":"tr","type":"tuple","internalType":"struct ImmutableERC721Base.TransferRequest","components":[{"name":"from","type":"address","internalType":"address"},{"name":"tos","type":"address[]","internalType":"address[]"},{"name":"tokenIds","type":"uint256[]","internalType":"uint256[]"}]}],"outputs":[],"stateMutability":"nonpayable"},{"type":"function","name":"setApprovalForAll","inputs":[{"name":"operator","type":"address","internalType":"address"},{"name":"approved","type":"bool","internalType":"bool"}],"outputs":[],"stateMutability":"nonpayable"},{"type":"function","name":"setBaseURI","inputs":[{"name":"baseURI_","type":"string","internalType":"string"}],"outputs":[],"stateMutability":"nonpayable"},{"type":"function","name":"setContractURI","inputs":[{"name":"_contractURI","type":"string","internalType":"string"}],"outputs":[],"stateMutability":"nonpayable"},{"type":"function","name":"setDefaultRoyaltyReceiver","inputs":[{"name":"receiver","type":"address","internalType":"address"},{"name":"feeNumerator","type":"uint96","internalType":"uint96"}],"outputs":[],"stateMutability":"nonpayable"},{"type":"function","name":"setNFTRoyaltyReceiver","inputs":[{"name":"tokenId","type":"uint256","internalType":"uint256"},{"name":"receiver","type":"address","internalType":"address"},{"name":"feeNumerator","type":"uint96","internalType":"uint96"}],"outputs":[],"stateMutability":"nonpayable"},{"type":"function","name":"setNFTRoyaltyReceiverBatch","inputs":[{"name":"tokenIds","type":"uint256[]","internalType":"uint256[]"},{"name":"receiver","type":"address","internalType":"address"},{"name":"feeNumerator","type":"uint96","internalType":"uint96"}],"outputs":[],"stateMutability":"nonpayable"},{"type":"function","name":"supportsInterface","inputs":[{"name":"interfaceId","type":"bytes4","internalType":"bytes4"}],"outputs":[{"name":"","type":"bool","internalType":"bool"}],"stateMutability":"view"},{"type":"function","name":"symbol","inputs":[],"outputs":[{"name":"","type":"string","internalType":"string"}],"stateMutability":"view"},{"type":"function","name":"tokenURI","inputs":[{"name":"tokenId","type":"uint256","internalType":"uint256"}],"outputs":[{"name":"","type":"string","internalType":"string"}],"stateMutability":"view"},{"type":"function","name":"totalSupply","inputs":[],"outputs":[{"name":"","type":"uint256","internalType":"uint256"}],"stateMutability":"view"},{"type":"function","name":"transferFrom","inputs":[{"name":"from","type":"address","internalType":"address"},{"name":"to","type":"address","internalType":"address"},{"name":"tokenId","type":"uint256","internalType":"uint256"}],"outputs":[],"stateMutability":"nonpayable"},{"type":"event","name":"Approval","inputs":[{"name":"owner","type":"address","indexed":true,"internalType":"address"},{"name":"approved","type":"address","indexed":true,"internalType":"address"},{"name":"tokenId","type":"uint256","indexed":true,"internalType":"uint256"}],"anonymous":false},{"type":"event","name":"ApprovalForAll","inputs":[{"name":"owner","type":"address","indexed":true,"internalType":"address"},{"name":"operator","type":"address","indexed":true,"internalType":"address"},{"name":"approved","type":"bool","indexed":false,"internalType":"bool"}],"anonymous":false},{"type":"event","name":"EIP712DomainChanged","inputs":[],"anonymous":false},{"type":"event","name":"FallbackCalled","inputs":[{"name":"sender","type":"address","indexed":false,"internalType":"address"}],"anonymous":false},{"type":"event","name":"OperatorAllowlistRegistryUpdated","inputs":[{"name":"oldRegistry","type":"address","indexed":false,"internalType":"address"},{"name":"newRegistry","type":"address","indexed":false,"internalType":"address"}],"anonymous":false},{"type":"event","name":"RoleAdminChanged","inputs":[{"name":"role","type":"bytes32","indexed":true,"internalType":"bytes32"},{"name":"previousAdminRole","type":"bytes32","indexed":true,"internalType":"bytes32"},{"name":"newAdminRole","type":"bytes32","indexed":true,"internalType":"bytes32"}],"anonymous":false},{"type":"event","name":"RoleGranted","inputs":[{"name":"role","type":"bytes32","indexed":true,"internalType":"bytes32"},{"name":"account","type":"address","indexed":true,"internalType":"address"},{"name":"sender","type":"address","indexed":true,"internalType":"address"}],"anonymous":false},{"type":"event","name":"RoleRevoked","inputs":[{"name":"role","type":"bytes32","indexed":true,"internalType":"bytes32"},{"name":"account","type":"address","indexed":true,"internalType":"address"},{"name":"sender","type":"address","indexed":true,"internalType":"address"}],"anonymous":false},{"type":"event","name":"Transfer","inputs":[{"name":"from","type":"address","indexed":true,"internalType":"address"},{"name":"to","type":"address","indexed":true,"internalType":"address"},{"name":"tokenId","type":"uint256","indexed":true,"internalType":"uint256"}],"anonymous":false},{"type":"error","name":"AllowlistDoesNotImplementIOperatorAllowlist","inputs":[]},{"type":"error","name":"ApproveTargetNotInAllowlist","inputs":[{"name":"target","type":"address","internalType":"address"}]},{"type":"error","name":"ApproverNotInAllowlist","inputs":[{"name":"approver","type":"address","internalType":"address"}]},{"type":"error","name":"CallerNotInAllowlist","inputs":[{"name":"caller","type":"address","internalType":"address"}]},{"type":"error","name":"IImmutableERC721IDAboveThreshold","inputs":[{"name":"tokenId","type":"uint256","internalType":"uint256"}]},{"type":"error","name":"IImmutableERC721MismatchedTokenOwner","inputs":[{"name":"tokenId","type":"uint256","internalType":"uint256"},{"name":"currentOwner","type":"address","internalType":"address"}]},{"type":"error","name":"IImmutableERC721MismatchedTransferLengths","inputs":[]},{"type":"error","name":"IImmutableERC721NotOwnerOrOperator","inputs":[{"name":"tokenId","type":"uint256","internalType":"uint256"}]},{"type":"error","name":"IImmutableERC721SendingToZerothAddress","inputs":[]},{"type":"error","name":"IImmutableERC721TokenAlreadyBurned","inputs":[{"name":"tokenId","type":"uint256","internalType":"uint256"}]},{"type":"error","name":"InvalidShortString","inputs":[]},{"type":"error","name":"InvalidSignature","inputs":[]},{"type":"error","name":"PermitExpired","inputs":[]},{"type":"error","name":"SignerCannotBeZerothAddress","inputs":[]},{"type":"error","name":"StringTooLong","inputs":[{"name":"str","type":"string","internalType":"string"}]},{"type":"error","name":"TransferFromNotInAllowlist","inputs":[{"name":"from","type":"address","internalType":"address"}]},{"type":"error","name":"TransferToNotInAllowlist","inputs":[{"name":"to","type":"address","internalType":"address"}]}],"bytecode":{"object":"0x610160604052348015610010575f5ffd5b5060405161848138038061848183398181016040528101906100329190610a07565b878787878787878787878787878787878686816040518060400160405280600181526020017f31000000000000000000000000000000000000000000000000000000000000008152508383816003908161008c9190610d38565b50806004908161009c9190610d38565b5050506100b36009836101b960201b90919060201c565b61012081815250506100cf600a826101b960201b90919060201c565b6101408181525050818051906020012060e08181525050808051906020012061010081815250504660a0818152505061010c61020660201b60201c565b608081815250503073ffffffffffffffffffffffffffffffffffffffff1660c08173ffffffffffffffffffffffffffffffffffffffff16815250505050505061015d5f5f1b8961026060201b60201c565b61016d828261029860201b60201c565b61017c8361042e60201b60201c565b84600f908161018b9190610d38565b5083600e908161019b9190610d38565b50505050505050505050505050505050505050505050505050611159565b5f6020835110156101da576101d38361059760201b60201c565b9050610200565b826101ea836105fc60201b60201c565b5f0190816101f89190610d38565b5060ff5f1b90505b92915050565b5f7f8b73c3c69bb8fe3d512ecc4cf759cc79239f7b179b0ffacaa9a75d522b39400f60e051610100514630604051602001610245959493929190610e3d565b60405160208183030381529060405280519060200120905090565b610270828261060560201b60201c565b6102938160025f8581526020019081526020015f206106eb60201b90919060201c565b505050565b6102a661071e60201b60201c565b6bffffffffffffffffffffffff16816bffffffffffffffffffffffff161115610304576040517f08c379a00000000000000000000000000000000000000000000000000000000081526004016102fb90610f0e565b60405180910390fd5b5f73ffffffffffffffffffffffffffffffffffffffff168273ffffffffffffffffffffffffffffffffffffffff1603610372576040517f08c379a000000000000000000000000000000000000000000000000000000000815260040161036990610f76565b60405180910390fd5b60405180604001604052808373ffffffffffffffffffffffffffffffffffffffff168152602001826bffffffffffffffffffffffff16815250600c5f820151815f015f6101000a81548173ffffffffffffffffffffffffffffffffffffffff021916908373ffffffffffffffffffffffffffffffffffffffff1602179055506020820151815f0160146101000a8154816bffffffffffffffffffffffff02191690836bffffffffffffffffffffffff1602179055509050505050565b8073ffffffffffffffffffffffffffffffffffffffff166301ffc9a77f05a3b809000000000000000000000000000000000000000000000000000000006040518263ffffffff1660e01b81526004016104879190610fce565b602060405180830381865afa1580156104a2573d5f5f3e3d5ffd5b505050506040513d601f19601f820116820180604052508101906104c6919061101c565b6104fc576040517fd6f93fb700000000000000000000000000000000000000000000000000000000815260040160405180910390fd5b7f3edc37a14cc8047c7c8a3f354311efe86c14848efd4e3765a3e1e57eea04ea765f5f9054906101000a900473ffffffffffffffffffffffffffffffffffffffff168260405161054d929190611047565b60405180910390a1805f5f6101000a81548173ffffffffffffffffffffffffffffffffffffffff021916908373ffffffffffffffffffffffffffffffffffffffff16021790555050565b5f5f829050601f815111156105e357826040517f305a27a90000000000000000000000000000000000000000000000000000000081526004016105da91906110a6565b60405180910390fd5b8051816105ef906110f3565b5f1c175f1b915050919050565b5f819050919050565b610615828261072760201b60201c565b6106e7576001805f8481526020019081526020015f205f015f8373ffffffffffffffffffffffffffffffffffffffff1673ffffffffffffffffffffffffffffffffffffffff1681526020019081526020015f205f6101000a81548160ff02191690831515021790555061068c61078b60201b60201c565b73ffffffffffffffffffffffffffffffffffffffff168173ffffffffffffffffffffffffffffffffffffffff16837f2f8788117e7eff1d82e926ec794901d17c78024a50270940304540a733656f0d60405160405180910390a45b5050565b5f610716835f018373ffffffffffffffffffffffffffffffffffffffff165f1b61079260201b60201c565b905092915050565b5f612710905090565b5f60015f8481526020019081526020015f205f015f8373ffffffffffffffffffffffffffffffffffffffff1673ffffffffffffffffffffffffffffffffffffffff1681526020019081526020015f205f9054906101000a900460ff16905092915050565b5f33905090565b5f6107a383836107ff60201b60201c565b6107f557825f0182908060018154018082558091505060019003905f5260205f20015f9091909190915055825f0180549050836001015f8481526020019081526020015f2081905550600190506107f9565b5f90505b92915050565b5f5f836001015f8481526020019081526020015f20541415905092915050565b5f604051905090565b5f5ffd5b5f5ffd5b5f73ffffffffffffffffffffffffffffffffffffffff82169050919050565b5f61085982610830565b9050919050565b6108698161084f565b8114610873575f5ffd5b50565b5f8151905061088481610860565b92915050565b5f5ffd5b5f5ffd5b5f601f19601f8301169050919050565b7f4e487b71000000000000000000000000000000000000000000000000000000005f52604160045260245ffd5b6108d882610892565b810181811067ffffffffffffffff821117156108f7576108f66108a2565b5b80604052505050565b5f61090961081f565b905061091582826108cf565b919050565b5f67ffffffffffffffff821115610934576109336108a2565b5b61093d82610892565b9050602081019050919050565b8281835e5f83830152505050565b5f61096a6109658461091a565b610900565b9050828152602081018484840111156109865761098561088e565b5b61099184828561094a565b509392505050565b5f82601f8301126109ad576109ac61088a565b5b81516109bd848260208601610958565b91505092915050565b5f6bffffffffffffffffffffffff82169050919050565b6109e6816109c6565b81146109f0575f5ffd5b50565b5f81519050610a01816109dd565b92915050565b5f5f5f5f5f5f5f5f610100898b031215610a2457610a23610828565b5b5f610a318b828c01610876565b985050602089015167ffffffffffffffff811115610a5257610a5161082c565b5b610a5e8b828c01610999565b975050604089015167ffffffffffffffff811115610a7f57610a7e61082c565b5b610a8b8b828c01610999565b965050606089015167ffffffffffffffff811115610aac57610aab61082c565b5b610ab88b828c01610999565b955050608089015167ffffffffffffffff811115610ad957610ad861082c565b5b610ae58b828c01610999565b94505060a0610af68b828c01610876565b93505060c0610b078b828c01610876565b92505060e0610b188b828c016109f3565b9150509295985092959890939650565b5f81519050919050565b7f4e487b71000000000000000000000000000000000000000000000000000000005f52602260045260245ffd5b5f6002820490506001821680610b7657607f821691505b602082108103610b8957610b88610b32565b5b50919050565b5f819050815f5260205f209050919050565b5f6020601f8301049050919050565b5f82821b905092915050565b5f60088302610beb7fffffffffffffffffffffffffffffffffffffffffffffffffffffffffffffffff82610bb0565b610bf58683610bb0565b95508019841693508086168417925050509392505050565b5f819050919050565b5f819050919050565b5f610c39610c34610c2f84610c0d565b610c16565b610c0d565b9050919050565b5f819050919050565b610c5283610c1f565b610c66610c5e82610c40565b848454610bbc565b825550505050565b5f5f905090565b610c7d610c6e565b610c88818484610c49565b505050565b5b81811015610cab57610ca05f82610c75565b600181019050610c8e565b5050565b601f821115610cf057610cc181610b8f565b610cca84610ba1565b81016020851015610cd9578190505b610ced610ce585610ba1565b830182610c8d565b50505b505050565b5f82821c905092915050565b5f610d105f1984600802610cf5565b1980831691505092915050565b5f610d288383610d01565b9150826002028217905092915050565b610d4182610b28565b67ffffffffffffffff811115610d5a57610d596108a2565b5b610d648254610b5f565b610d6f828285610caf565b5f60209050601f831160018114610da0575f8415610d8e578287015190505b610d988582610d1d565b865550610dff565b601f198416610dae86610b8f565b5f5b82811015610dd557848901518255600182019150602085019450602081019050610db0565b86831015610df25784890151610dee601f891682610d01565b8355505b6001600288020188555050505b505050505050565b5f819050919050565b610e1981610e07565b82525050565b610e2881610c0d565b82525050565b610e378161084f565b82525050565b5f60a082019050610e505f830188610e10565b610e5d6020830187610e10565b610e6a6040830186610e10565b610e776060830185610e1f565b610e846080830184610e2e565b9695505050505050565b5f82825260208201905092915050565b7f455243323938313a20726f79616c7479206665652077696c6c206578636565645f8201527f2073616c65507269636500000000000000000000000000000000000000000000602082015250565b5f610ef8602a83610e8e565b9150610f0382610e9e565b604082019050919050565b5f6020820190508181035f830152610f2581610eec565b9050919050565b7f455243323938313a20696e76616c6964207265636569766572000000000000005f82015250565b5f610f60601983610e8e565b9150610f6b82610f2c565b602082019050919050565b5f6020820190508181035f830152610f8d81610f54565b9050919050565b5f7fffffffff0000000000000000000000000000000000000000000000000000000082169050919050565b610fc881610f94565b82525050565b5f602082019050610fe15f830184610fbf565b92915050565b5f8115159050919050565b610ffb81610fe7565b8114611005575f5ffd5b50565b5f8151905061101681610ff2565b92915050565b5f6020828403121561103157611030610828565b5b5f61103e84828501611008565b91505092915050565b5f60408201905061105a5f830185610e2e565b6110676020830184610e2e565b9392505050565b5f61107882610b28565b6110828185610e8e565b935061109281856020860161094a565b61109b81610892565b840191505092915050565b5f6020820190508181035f8301526110be818461106e565b905092915050565b5f81519050919050565b5f819050602082019050919050565b5f6110ea8251610e07565b80915050919050565b5f6110fd826110c6565b82611107846110d0565b9050611112816110df565b925060208210156111525761114d7fffffffffffffffffffffffffffffffffffffffffffffffffffffffffffffffff83602003600802610bb0565b831692505b5050919050565b60805160a05160c05160e0516101005161012051610140516172d76111aa5f395f61159001525f61155c01525f61348801525f61346701525f61260201525f61265801525f61268101526172d75ff3fe608060405234801561000f575f5ffd5b50600436106102d7575f3560e01c806369e2f0fb116101805780639f15d700116100e7578063c87b56dd116100a0578063d547741f1161007a578063d547741f14610912578063e4623c1b1461092e578063e8a3d4851461094a578063e985e9c514610968576102d8565b8063c87b56dd14610894578063ca15c873146108c4578063d5391393146108f4576102d8565b80639f15d700146107ea578063a144819414610806578063a217fddf14610822578063a22cb46514610840578063a70128161461085c578063b88d4fde14610878576102d8565b8063885e7a0811610139578063885e7a08146107185780639010d07c1461073457806391d1485414610764578063938e3d7b1461079457806395d89b41146107b05780639e2641a3146107ce576102d8565b806369e2f0fb146106525780636c0360eb1461066e57806370a082311461068c578063745a41bc146106bc57806374f16a81146106d857806384b0196e146106f4576102d8565b80632f2ff15d1161023f5780633eaaf86b116101f857806342966c68116101d257806342966c68146105ce578063439aed34146105ea57806355f804b3146106065780636352211e14610622576102d8565b80633eaaf86b1461057857806340c10f191461059657806342842e0e146105b2576102d8565b80632f2ff15d146104cc57806331ae450b146104e85780633644e5151461050657806336568abe146105245780633dd1eb61146105405780633e769acd1461055c576102d8565b806318160ddd1161029157806318160ddd146103f7578063234af0461461041557806323b872dd14610431578063248a9ca31461044d57806329326f291461047d5780632a55205a1461049b576102d8565b80628ad9461461031157806301ffc9a71461032d57806306fdde031461035d578063081812fc1461037b578063095ea7b3146103ab578063141a468c146103c7576102d8565b5b7ff028c523285f6d5172b4f6fd31f72f52dc757bc26a0c46239dec58b836ee67f6336040516103079190614f08565b60405180910390a1005b61032b60048036038101906103269190614f54565b610998565b005b61034760048036038101906103429190614ff0565b610a9a565b6040516103549190615035565b60405180910390f35b610365610aab565b60405161037291906150be565b60405180910390f35b61039560048036038101906103909190615111565b610b3b565b6040516103a29190614f08565b60405180910390f35b6103c560048036038101906103c09190615166565b610b7d565b005b6103e160048036038101906103dc9190615111565b610c93565b6040516103ee91906151b3565b60405180910390f35b6103ff610cad565b60405161040c91906151b3565b60405180910390f35b61042f600480360381019061042a919061522d565b610cb6565b005b61044b60048036038101906104469190615278565b610d30565b005b610467600480360381019061046291906152fb565b610d90565b6040516104749190615335565b60405180910390f35b610485610dad565b60405161049291906153a9565b60405180910390f35b6104b560048036038101906104b091906153c2565b610dd1565b6040516104c3929190615400565b60405180910390f35b6104e660048036038101906104e19190615427565b610fad565b005b6104f0610fce565b6040516104fd919061551c565b60405180910390f35b61050e6110a3565b60405161051b9190615335565b60405180910390f35b61053e60048036038101906105399190615427565b6110b1565b005b61055a6004803603810190610555919061553c565b611134565b005b610576600480360381019061057191906155bc565b61116e565b005b610580611227565b60405161058d91906151b3565b60405180910390f35b6105b060048036038101906105ab9190615166565b61122d565b005b6105cc60048036038101906105c79190615278565b61127d565b005b6105e860048036038101906105e39190615111565b61129c565b005b61060460048036038101906105ff9190615648565b6112d3565b005b610620600480360381019061061b91906157c0565b61130e565b005b61063c60048036038101906106379190615111565b61132e565b6040516106499190614f08565b60405180910390f35b61066c6004803603810190610667919061553c565b6113b2565b005b6106766113ec565b60405161068391906150be565b60405180910390f35b6106a660048036038101906106a1919061553c565b611478565b6040516106b391906151b3565b60405180910390f35b6106d660048036038101906106d191906158a5565b61152c565b005b6106f260048036038101906106ed91906155bc565b61153e565b005b6106fc61154c565b60405161070f9796959493929190615a16565b60405180910390f35b610732600480360381019061072d9190615a98565b611649565b005b61074e60048036038101906107499190615ad6565b611664565b60405161075b9190614f08565b60405180910390f35b61077e60048036038101906107799190615427565b611690565b60405161078b9190615035565b60405180910390f35b6107ae60048036038101906107a991906157c0565b6116f4565b005b6107b8611714565b6040516107c591906150be565b60405180910390f35b6107e860048036038101906107e3919061522d565b6117a4565b005b61080460048036038101906107ff9190615166565b61181e565b005b610820600480360381019061081b9190615166565b6118aa565b005b61082a611909565b6040516108379190615335565b60405180910390f35b61085a60048036038101906108559190615b3e565b61190f565b005b61087660048036038101906108719190615bd1565b611b1b565b005b610892600480360381019061088d9190615c42565b611b8e565b005b6108ae60048036038101906108a99190615111565b611bf0565b6040516108bb91906150be565b60405180910390f35b6108de60048036038101906108d991906152fb565b611c55565b6040516108eb91906151b3565b60405180910390f35b6108fc611c76565b6040516109099190615335565b60405180910390f35b61092c60048036038101906109279190615427565b611c9a565b005b61094860048036038101906109439190615cc2565b611cbb565b005b610952611cff565b60405161095f91906150be565b60405180910390f35b610982600480360381019061097d9190615d0d565b611d8b565b60405161098f9190615035565b60405180910390f35b8080602001906109a89190615d57565b90508180604001906109ba9190615db9565b9050146109f3576040517f359a1bc300000000000000000000000000000000000000000000000000000000815260040160405180910390fd5b5f5f90505b818060400190610a089190615db9565b9050811015610a9657610a89825f016020810190610a26919061553c565b838060200190610a369190615d57565b84818110610a4757610a46615e1b565b5b9050602002016020810190610a5c919061553c565b848060400190610a6c9190615db9565b85818110610a7d57610a7c615e1b565b5b9050602002013561127d565b80806001019150506109f8565b5050565b5f610aa482611e19565b9050919050565b606060038054610aba90615e75565b80601f0160208091040260200160405190810160405280929190818152602001828054610ae690615e75565b8015610b315780601f10610b0857610100808354040283529160200191610b31565b820191905f5260205f20905b815481529060010190602001808311610b1457829003601f168201915b5050505050905090565b5f610b4582611e92565b60075f8381526020019081526020015f205f9054906101000a900473ffffffffffffffffffffffffffffffffffffffff169050919050565b5f610b878261132e565b90508073ffffffffffffffffffffffffffffffffffffffff168373ffffffffffffffffffffffffffffffffffffffff1603610bf7576040517f08c379a0000000000000000000000000000000000000000000000000000000008152600401610bee90615f15565b60405180910390fd5b8073ffffffffffffffffffffffffffffffffffffffff16610c16611edd565b73ffffffffffffffffffffffffffffffffffffffff161480610c455750610c4481610c3f611edd565b611d8b565b5b610c84576040517f08c379a0000000000000000000000000000000000000000000000000000000008152600401610c7b90615fa3565b60405180910390fd5b610c8e8383611ee4565b505050565b5f600b5f8381526020019081526020015f20549050919050565b5f601054905090565b7f4d494e5445525f524f4c45000000000000000000000000000000000000000000610ce0816120f0565b5f5f90505b83839050811015610d2a57610d1d848483818110610d0657610d05615e1b565b5b9050602002810190610d189190615fc1565b612104565b8080600101915050610ce5565b50505050565b610d41610d3b611edd565b8261220d565b610d80576040517f08c379a0000000000000000000000000000000000000000000000000000000008152600401610d7790616058565b60405180910390fd5b610d8b8383836122a1565b505050565b5f60015f8381526020019081526020015f20600101549050919050565b5f5f9054906101000a900473ffffffffffffffffffffffffffffffffffffffff1681565b5f5f5f600d5f8681526020019081526020015f206040518060400160405290815f82015f9054906101000a900473ffffffffffffffffffffffffffffffffffffffff1673ffffffffffffffffffffffffffffffffffffffff1673ffffffffffffffffffffffffffffffffffffffff1681526020015f820160149054906101000a90046bffffffffffffffffffffffff166bffffffffffffffffffffffff166bffffffffffffffffffffffff168152505090505f73ffffffffffffffffffffffffffffffffffffffff16815f015173ffffffffffffffffffffffffffffffffffffffff1603610f5a57600c6040518060400160405290815f82015f9054906101000a900473ffffffffffffffffffffffffffffffffffffffff1673ffffffffffffffffffffffffffffffffffffffff1673ffffffffffffffffffffffffffffffffffffffff1681526020015f820160149054906101000a90046bffffffffffffffffffffffff166bffffffffffffffffffffffff166bffffffffffffffffffffffff168152505090505b5f610f636125c4565b6bffffffffffffffffffffffff1682602001516bffffffffffffffffffffffff1686610f8f91906160a3565b610f999190616111565b9050815f0151819350935050509250929050565b610fb682610d90565b610fbf816120f0565b610fc983836125cd565b505050565b60605f610fdc5f5f1b611c55565b90505f8167ffffffffffffffff811115610ff957610ff861569c565b5b6040519080825280602002602001820160405280156110275781602001602082028036833780820191505090505b5090505f5b8281101561109a576110405f5f1b82611664565b82828151811061105357611052615e1b565b5b602002602001019073ffffffffffffffffffffffffffffffffffffffff16908173ffffffffffffffffffffffffffffffffffffffff1681525050808060010191505061102c565b50809250505090565b5f6110ac6125ff565b905090565b6110b9611edd565b73ffffffffffffffffffffffffffffffffffffffff168173ffffffffffffffffffffffffffffffffffffffff1614611126576040517f08c379a000000000000000000000000000000000000000000000000000000000815260040161111d906161b1565b60405180910390fd5b61113082826126b5565b5050565b5f5f1b611140816120f0565b61116a7f4d494e5445525f524f4c4500000000000000000000000000000000000000000083610fad565b5050565b5f5f90505b82829050811015611222573683838381811061119257611191615e1b565b5b90506020028101906111a491906161cf565b90505f5f90505b8180602001906111bb9190615db9565b905081101561121357611206825f0160208101906111d9919061553c565b8380602001906111e99190615db9565b848181106111fa576111f9615e1b565b5b9050602002013561181e565b80806001019150506111ab565b50508080600101915050611173565b505050565b60105481565b7f4d494e5445525f524f4c45000000000000000000000000000000000000000000611257816120f0565b60105f815480929190611269906161f6565b919050555061127883836126e7565b505050565b61129783838360405180602001604052805f815250611b8e565b505050565b6112a58161274b565b6112b98160116127a790919063ffffffff16565b60105f8154809291906112cb9061623d565b919050555050565b7f4d494e5445525f524f4c450000000000000000000000000000000000000000006112fd816120f0565b6113088484846127df565b50505050565b5f5f1b61131a816120f0565b81600f908161132991906163fb565b505050565b5f5f6113398361297f565b90505f73ffffffffffffffffffffffffffffffffffffffff168173ffffffffffffffffffffffffffffffffffffffff16036113a9576040517f08c379a00000000000000000000000000000000000000000000000000000000081526004016113a090616514565b60405180910390fd5b80915050919050565b5f5f1b6113be816120f0565b6113e87f4d494e5445525f524f4c4500000000000000000000000000000000000000000083611c9a565b5050565b600f80546113f990615e75565b80601f016020809104026020016040519081016040528092919081815260200182805461142590615e75565b80156114705780601f1061144757610100808354040283529160200191611470565b820191905f5260205f20905b81548152906001019060200180831161145357829003601f168201915b505050505081565b5f5f73ffffffffffffffffffffffffffffffffffffffff168273ffffffffffffffffffffffffffffffffffffffff16036114e7576040517f08c379a00000000000000000000000000000000000000000000000000000000081526004016114de906165a2565b60405180910390fd5b60065f8373ffffffffffffffffffffffffffffffffffffffff1673ffffffffffffffffffffffffffffffffffffffff1681526020019081526020015f20549050919050565b611538848484846129b8565b50505050565b611548828261116e565b5050565b5f6060805f5f5f606061158960097f0000000000000000000000000000000000000000000000000000000000000000612b1690919063ffffffff16565b6115bd600a7f0000000000000000000000000000000000000000000000000000000000000000612b1690919063ffffffff16565b46305f5f1b5f67ffffffffffffffff8111156115dc576115db61569c565b5b60405190808252806020026020018201604052801561160a5781602001602082028036833780820191505090505b507f0f00000000000000000000000000000000000000000000000000000000000000959493929190965096509650965096509650965090919293949596565b5f5f1b611655816120f0565b61165f8383612bc3565b505050565b5f6116888260025f8681526020019081526020015f20612d5390919063ffffffff16565b905092915050565b5f60015f8481526020019081526020015f205f015f8373ffffffffffffffffffffffffffffffffffffffff1673ffffffffffffffffffffffffffffffffffffffff1681526020019081526020015f205f9054906101000a900460ff16905092915050565b5f5f1b611700816120f0565b81600e908161170f91906163fb565b505050565b60606004805461172390615e75565b80601f016020809104026020016040519081016040528092919081815260200182805461174f90615e75565b801561179a5780601f106117715761010080835404028352916020019161179a565b820191905f5260205f20905b81548152906001019060200180831161177d57829003601f168201915b5050505050905090565b7f4d494e5445525f524f4c450000000000000000000000000000000000000000006117ce816120f0565b5f5f90505b838390508110156118185761180b8484838181106117f4576117f3615e1b565b5b90506020028101906118069190615fc1565b612d6a565b80806001019150506117d3565b50505050565b5f6118288261132e565b90508273ffffffffffffffffffffffffffffffffffffffff168173ffffffffffffffffffffffffffffffffffffffff161461189c5781816040517f4fefd5610000000000000000000000000000000000000000000000000000000081526004016118939291906165c0565b60405180910390fd5b6118a58261129c565b505050565b7f4d494e5445525f524f4c450000000000000000000000000000000000000000006118d4816120f0565b60105f8154809291906118e6906161f6565b9190505550611904838360405180602001604052805f815250612e76565b505050565b5f5f1b81565b815f3373ffffffffffffffffffffffffffffffffffffffff163b141580156119cc57505f5f9054906101000a900473ffffffffffffffffffffffffffffffffffffffff1673ffffffffffffffffffffffffffffffffffffffff166305a3b809336040518263ffffffff1660e01b815260040161198b9190614f08565b602060405180830381865afa1580156119a6573d5f5f3e3d5ffd5b505050506040513d601f19601f820116820180604052508101906119ca91906165fb565b155b15611a0e57336040517ff6fa4cbd000000000000000000000000000000000000000000000000000000008152600401611a059190614f08565b60405180910390fd5b5f8173ffffffffffffffffffffffffffffffffffffffff163b14158015611aca57505f5f9054906101000a900473ffffffffffffffffffffffffffffffffffffffff1673ffffffffffffffffffffffffffffffffffffffff166305a3b809826040518263ffffffff1660e01b8152600401611a899190614f08565b602060405180830381865afa158015611aa4573d5f5f3e3d5ffd5b505050506040513d601f19601f82011682018060405250810190611ac891906165fb565b155b15611b0c57806040517f8371ab02000000000000000000000000000000000000000000000000000000008152600401611b039190614f08565b60405180910390fd5b611b168383612ed0565b505050565b7f4d494e5445525f524f4c45000000000000000000000000000000000000000000611b45816120f0565b5f5f90505b85859050811015611b8657611b79868683818110611b6b57611b6a615e1b565b5b9050602002013585856127df565b8080600101915050611b4a565b505050505050565b611b9f611b99611edd565b8361220d565b611bde576040517f08c379a0000000000000000000000000000000000000000000000000000000008152600401611bd590616058565b60405180910390fd5b611bea84848484612ee6565b50505050565b6060611bfb82611e92565b5f611c04612f42565b90505f815111611c225760405180602001604052805f815250611c4d565b80611c2c84612fd2565b604051602001611c3d929190616660565b6040516020818303038152906040525b915050919050565b5f611c6f60025f8481526020019081526020015f2061309c565b9050919050565b7f4d494e5445525f524f4c4500000000000000000000000000000000000000000081565b611ca382610d90565b611cac816120f0565b611cb683836126b5565b505050565b5f5f90505b82829050811015611cfa57611ced838383818110611ce157611ce0615e1b565b5b9050602002013561129c565b8080600101915050611cc0565b505050565b600e8054611d0c90615e75565b80601f0160208091040260200160405190810160405280929190818152602001828054611d3890615e75565b8015611d835780601f10611d5a57610100808354040283529160200191611d83565b820191905f5260205f20905b815481529060010190602001808311611d6657829003601f168201915b505050505081565b5f60085f8473ffffffffffffffffffffffffffffffffffffffff1673ffffffffffffffffffffffffffffffffffffffff1681526020019081526020015f205f8373ffffffffffffffffffffffffffffffffffffffff1673ffffffffffffffffffffffffffffffffffffffff1681526020019081526020015f205f9054906101000a900460ff16905092915050565b5f7f2a55205a000000000000000000000000000000000000000000000000000000007bffffffffffffffffffffffffffffffffffffffffffffffffffffffff1916827bffffffffffffffffffffffffffffffffffffffffffffffffffffffff19161480611e8b5750611e8a826130af565b5b9050919050565b611e9b81613128565b611eda576040517f08c379a0000000000000000000000000000000000000000000000000000000008152600401611ed190616514565b60405180910390fd5b50565b5f33905090565b815f3373ffffffffffffffffffffffffffffffffffffffff163b14158015611fa157505f5f9054906101000a900473ffffffffffffffffffffffffffffffffffffffff1673ffffffffffffffffffffffffffffffffffffffff166305a3b809336040518263ffffffff1660e01b8152600401611f609190614f08565b602060405180830381865afa158015611f7b573d5f5f3e3d5ffd5b505050506040513d601f19601f82011682018060405250810190611f9f91906165fb565b155b15611fe357336040517ff6fa4cbd000000000000000000000000000000000000000000000000000000008152600401611fda9190614f08565b60405180910390fd5b5f8173ffffffffffffffffffffffffffffffffffffffff163b1415801561209f57505f5f9054906101000a900473ffffffffffffffffffffffffffffffffffffffff1673ffffffffffffffffffffffffffffffffffffffff166305a3b809826040518263ffffffff1660e01b815260040161205e9190614f08565b602060405180830381865afa158015612079573d5f5f3e3d5ffd5b505050506040513d601f19601f8201168201806040525081019061209d91906165fb565b155b156120e157806040517f8371ab020000000000000000000000000000000000000000000000000000000081526004016120d89190614f08565b60405180910390fd5b6120eb8383613168565b505050565b612101816120fc611edd565b61321e565b50565b5f73ffffffffffffffffffffffffffffffffffffffff16815f01602081019061212d919061553c565b73ffffffffffffffffffffffffffffffffffffffff160361217a576040517f6387ca5200000000000000000000000000000000000000000000000000000000815260040160405180910390fd5b5f5b81806020019061218c9190615db9565b90508110156121e4576121d7825f0160208101906121aa919061553c565b8380602001906121ba9190615db9565b848181106121cb576121ca615e1b565b5b905060200201356132a2565b808060010191505061217c565b508080602001906121f59190615db9565b90506010546122049190616683565b60108190555050565b5f5f6122188361132e565b90508073ffffffffffffffffffffffffffffffffffffffff168473ffffffffffffffffffffffffffffffffffffffff16148061225a57506122598185611d8b565b5b8061229857508373ffffffffffffffffffffffffffffffffffffffff1661228084610b3b565b73ffffffffffffffffffffffffffffffffffffffff16145b91505092915050565b82823273ffffffffffffffffffffffffffffffffffffffff163373ffffffffffffffffffffffffffffffffffffffff161415801561237457505f5f9054906101000a900473ffffffffffffffffffffffffffffffffffffffff1673ffffffffffffffffffffffffffffffffffffffff166305a3b809336040518263ffffffff1660e01b81526004016123339190614f08565b602060405180830381865afa15801561234e573d5f5f3e3d5ffd5b505050506040513d601f19601f8201168201806040525081019061237291906165fb565b155b156123b657336040517f937db65f0000000000000000000000000000000000000000000000000000000081526004016123ad9190614f08565b60405180910390fd5b5f8273ffffffffffffffffffffffffffffffffffffffff163b1415801561247257505f5f9054906101000a900473ffffffffffffffffffffffffffffffffffffffff1673ffffffffffffffffffffffffffffffffffffffff166305a3b809836040518263ffffffff1660e01b81526004016124319190614f08565b602060405180830381865afa15801561244c573d5f5f3e3d5ffd5b505050506040513d601f19601f8201168201806040525081019061247091906165fb565b155b156124b457816040517ff93445310000000000000000000000000000000000000000000000000000000081526004016124ab9190614f08565b60405180910390fd5b5f8173ffffffffffffffffffffffffffffffffffffffff163b1415801561257057505f5f9054906101000a900473ffffffffffffffffffffffffffffffffffffffff1673ffffffffffffffffffffffffffffffffffffffff166305a3b809826040518263ffffffff1660e01b815260040161252f9190614f08565b602060405180830381865afa15801561254a573d5f5f3e3d5ffd5b505050506040513d601f19601f8201168201806040525081019061256e91906165fb565b155b156125b257806040517f54ce48420000000000000000000000000000000000000000000000000000000081526004016125a99190614f08565b60405180910390fd5b6125bd858585613306565b5050505050565b5f612710905090565b6125d7828261333c565b6125fa8160025f8581526020019081526020015f2061341690919063ffffffff16565b505050565b5f7f000000000000000000000000000000000000000000000000000000000000000073ffffffffffffffffffffffffffffffffffffffff163073ffffffffffffffffffffffffffffffffffffffff1614801561267a57507f000000000000000000000000000000000000000000000000000000000000000046145b156126a7577f000000000000000000000000000000000000000000000000000000000000000090506126b2565b6126af613443565b90505b90565b6126bf82826134d8565b6126e28160025f8581526020019081526020015f206135b390919063ffffffff16565b505050565b6126fb8160116135e090919063ffffffff16565b1561273d57806040517fbb9b422000000000000000000000000000000000000000000000000000000000815260040161273491906151b3565b60405180910390fd5b6127478282613616565b5050565b61275c612756611edd565b8261220d565b61279b576040517f08c379a000000000000000000000000000000000000000000000000000000000815260040161279290616058565b60405180910390fd5b6127a481613829565b50565b5f600882901c90505f60ff83166001901b905080845f015f8481526020019081526020015f205f828254179250508190555050505050565b6127e76125c4565b6bffffffffffffffffffffffff16816bffffffffffffffffffffffff161115612845576040517f08c379a000000000000000000000000000000000000000000000000000000000815260040161283c90616726565b60405180910390fd5b5f73ffffffffffffffffffffffffffffffffffffffff168273ffffffffffffffffffffffffffffffffffffffff16036128b3576040517f08c379a00000000000000000000000000000000000000000000000000000000081526004016128aa9061678e565b60405180910390fd5b60405180604001604052808373ffffffffffffffffffffffffffffffffffffffff168152602001826bffffffffffffffffffffffff16815250600d5f8581526020019081526020015f205f820151815f015f6101000a81548173ffffffffffffffffffffffffffffffffffffffff021916908373ffffffffffffffffffffffffffffffffffffffff1602179055506020820151815f0160146101000a8154816bffffffffffffffffffffffff02191690836bffffffffffffffffffffffff160217905550905050505050565b5f60055f8381526020019081526020015f205f9054906101000a900473ffffffffffffffffffffffffffffffffffffffff169050919050565b428210156129f2576040517f1a15a3cc00000000000000000000000000000000000000000000000000000000815260040160405180910390fd5b5f6129fe85858561396a565b9050612a13612a0c8561132e565b82846139e0565b15612a2857612a228585611ee4565b50612b10565b5f5f90506040835103612a7057612a6982612a45855f6020613b52565b612a4e906167d9565b612a5b8660206040613b52565b612a64906167d9565b613c6e565b9050612abd565b6041835103612a8a57612a838284613c95565b9050612abc565b6040517f8baa579f00000000000000000000000000000000000000000000000000000000815260040160405180910390fd5b5b612ac78186613cba565b15612adb57612ad68686611ee4565b612b0d565b6040517f8baa579f00000000000000000000000000000000000000000000000000000000815260040160405180910390fd5b50505b50505050565b606060ff5f1b8314612b3257612b2b83613d05565b9050612bbd565b818054612b3e90615e75565b80601f0160208091040260200160405190810160405280929190818152602001828054612b6a90615e75565b8015612bb55780601f10612b8c57610100808354040283529160200191612bb5565b820191905f5260205f20905b815481529060010190602001808311612b9857829003601f168201915b505050505090505b92915050565b612bcb6125c4565b6bffffffffffffffffffffffff16816bffffffffffffffffffffffff161115612c29576040517f08c379a0000000000000000000000000000000000000000000000000000000008152600401612c2090616726565b60405180910390fd5b5f73ffffffffffffffffffffffffffffffffffffffff168273ffffffffffffffffffffffffffffffffffffffff1603612c97576040517f08c379a0000000000000000000000000000000000000000000000000000000008152600401612c8e90616889565b60405180910390fd5b60405180604001604052808373ffffffffffffffffffffffffffffffffffffffff168152602001826bffffffffffffffffffffffff16815250600c5f820151815f015f6101000a81548173ffffffffffffffffffffffffffffffffffffffff021916908373ffffffffffffffffffffffffffffffffffffffff1602179055506020820151815f0160146101000a8154816bffffffffffffffffffffffff02191690836bffffffffffffffffffffffff1602179055509050505050565b5f612d60835f0183613d77565b5f1c905092915050565b5f73ffffffffffffffffffffffffffffffffffffffff16815f016020810190612d93919061553c565b73ffffffffffffffffffffffffffffffffffffffff1603612de0576040517f6387ca5200000000000000000000000000000000000000000000000000000000815260040160405180910390fd5b808060200190612df09190615db9565b9050601054612dff9190616683565b6010819055505f5f90505b818060200190612e1a9190615db9565b9050811015612e7257612e65825f016020810190612e38919061553c565b838060200190612e489190615db9565b84818110612e5957612e58615e1b565b5b905060200201356126e7565b8080600101915050612e0a565b5050565b612e8083836126e7565b612e8c5f848484613d9e565b612ecb576040517f08c379a0000000000000000000000000000000000000000000000000000000008152600401612ec290616917565b60405180910390fd5b505050565b612ee2612edb611edd565b8383613f20565b5050565b612ef18484846122a1565b612efd84848484613d9e565b612f3c576040517f08c379a0000000000000000000000000000000000000000000000000000000008152600401612f3390616917565b60405180910390fd5b50505050565b6060600f8054612f5190615e75565b80601f0160208091040260200160405190810160405280929190818152602001828054612f7d90615e75565b8015612fc85780601f10612f9f57610100808354040283529160200191612fc8565b820191905f5260205f20905b815481529060010190602001808311612fab57829003601f168201915b5050505050905090565b60605f6001612fe084614087565b0190505f8167ffffffffffffffff811115612ffe57612ffd61569c565b5b6040519080825280601f01601f1916602001820160405280156130305781602001600182028036833780820191505090505b5090505f82602001820190505b600115613091578080600190039150507f3031323334353637383961626364656600000000000000000000000000000000600a86061a8153600a8581613086576130856160e4565b5b0494505f850361303d575b819350505050919050565b5f6130a8825f016141d8565b9050919050565b5f7f5604e225000000000000000000000000000000000000000000000000000000007bffffffffffffffffffffffffffffffffffffffffffffffffffffffff1916827bffffffffffffffffffffffffffffffffffffffffffffffffffffffff191614806131215750613120826141e7565b5b9050919050565b5f5f73ffffffffffffffffffffffffffffffffffffffff166131498361297f565b73ffffffffffffffffffffffffffffffffffffffff1614159050919050565b8160075f8381526020019081526020015f205f6101000a81548173ffffffffffffffffffffffffffffffffffffffff021916908373ffffffffffffffffffffffffffffffffffffffff160217905550808273ffffffffffffffffffffffffffffffffffffffff166131d88361132e565b73ffffffffffffffffffffffffffffffffffffffff167f8c5be1e5ebec7d5bd14f71427d1e84f3dd0314c0f7b2291e5b200ac8c7c3b92560405160405180910390a45050565b6132288282611690565b61329e57613235816142c8565b613242835f1c60206142f5565b6040516020016132539291906169c9565b6040516020818303038152906040526040517f08c379a000000000000000000000000000000000000000000000000000000000815260040161329591906150be565b60405180910390fd5b5050565b6132b68160116135e090919063ffffffff16565b156132f857806040517fbb9b42200000000000000000000000000000000000000000000000000000000081526004016132ef91906151b3565b60405180910390fd5b613302828261452a565b5050565b600b5f8281526020019081526020015f205f815480929190613327906161f6565b9190505550613337838383614547565b505050565b6133468282611690565b613412576001805f8481526020019081526020015f205f015f8373ffffffffffffffffffffffffffffffffffffffff1673ffffffffffffffffffffffffffffffffffffffff1681526020019081526020015f205f6101000a81548160ff0219169083151502179055506133b7611edd565b73ffffffffffffffffffffffffffffffffffffffff168173ffffffffffffffffffffffffffffffffffffffff16837f2f8788117e7eff1d82e926ec794901d17c78024a50270940304540a733656f0d60405160405180910390a45b5050565b5f61343b835f018373ffffffffffffffffffffffffffffffffffffffff165f1b614833565b905092915050565b5f7f8b73c3c69bb8fe3d512ecc4cf759cc79239f7b179b0ffacaa9a75d522b39400f7f00000000000000000000000000000000000000000000000000000000000000007f000000000000000000000000000000000000000000000000000000000000000046306040516020016134bd959493929190616a02565b60405160208183030381529060405280519060200120905090565b6134e28282611690565b156135af575f60015f8481526020019081526020015f205f015f8373ffffffffffffffffffffffffffffffffffffffff1673ffffffffffffffffffffffffffffffffffffffff1681526020019081526020015f205f6101000a81548160ff021916908315150217905550613554611edd565b73ffffffffffffffffffffffffffffffffffffffff168173ffffffffffffffffffffffffffffffffffffffff16837ff6391f5c32d9c69d2a47ea670b442974b53935d1edc7fd64eb21e047a839171b60405160405180910390a45b5050565b5f6135d8835f018373ffffffffffffffffffffffffffffffffffffffff165f1b61489a565b905092915050565b5f5f600883901c90505f60ff84166001901b90505f81865f015f8581526020019081526020015f20541614159250505092915050565b5f73ffffffffffffffffffffffffffffffffffffffff168273ffffffffffffffffffffffffffffffffffffffff1603613684576040517f08c379a000000000000000000000000000000000000000000000000000000000815260040161367b90616a9d565b60405180910390fd5b61368d81613128565b156136cd576040517f08c379a00000000000000000000000000000000000000000000000000000000081526004016136c490616b05565b60405180910390fd5b6136da5f83836001614996565b6136e381613128565b15613723576040517f08c379a000000000000000000000000000000000000000000000000000000000815260040161371a90616b05565b60405180910390fd5b600160065f8473ffffffffffffffffffffffffffffffffffffffff1673ffffffffffffffffffffffffffffffffffffffff1681526020019081526020015f205f82825401925050819055508160055f8381526020019081526020015f205f6101000a81548173ffffffffffffffffffffffffffffffffffffffff021916908373ffffffffffffffffffffffffffffffffffffffff160217905550808273ffffffffffffffffffffffffffffffffffffffff165f73ffffffffffffffffffffffffffffffffffffffff167fddf252ad1be2c89b69c2b068fc378daa952ba7f163c4a11628f55a4df523b3ef60405160405180910390a46138255f8383600161499c565b5050565b5f6138338261132e565b9050613842815f846001614996565b61384b8261132e565b905060075f8381526020019081526020015f205f6101000a81549073ffffffffffffffffffffffffffffffffffffffff0219169055600160065f8373ffffffffffffffffffffffffffffffffffffffff1673ffffffffffffffffffffffffffffffffffffffff1681526020019081526020015f205f828254039250508190555060055f8381526020019081526020015f205f6101000a81549073ffffffffffffffffffffffffffffffffffffffff0219169055815f73ffffffffffffffffffffffffffffffffffffffff168273ffffffffffffffffffffffffffffffffffffffff167fddf252ad1be2c89b69c2b068fc378daa952ba7f163c4a11628f55a4df523b3ef60405160405180910390a4613966815f84600161499c565b5050565b5f6139d760405160200161397d90616bdd565b604051602081830303815290604052805190602001208585600b5f8881526020019081526020015f2054866040516020016139bc959493929190616bfc565b604051602081830303815290604052805190602001206149a2565b90509392505050565b5f5f5f8573ffffffffffffffffffffffffffffffffffffffff16631626ba7e60e01b8686604051602401613a15929190616c95565b604051602081830303815290604052907bffffffffffffffffffffffffffffffffffffffffffffffffffffffff19166020820180517bffffffffffffffffffffffffffffffffffffffffffffffffffffffff8381831617835250505050604051613a7f9190616cfd565b5f60405180830381855afa9150503d805f8114613ab7576040519150601f19603f3d011682016040523d82523d5f602084013e613abc565b606091505b5091509150818015613acf575060208151145b15613b45575f81806020019051810190613ae99190616d27565b9050631626ba7e60e01b7bffffffffffffffffffffffffffffffffffffffffffffffffffffffff1916817bffffffffffffffffffffffffffffffffffffffffffffffffffffffff191603613b435760019350505050613b4b565b505b5f925050505b9392505050565b606081601f83613b629190616683565b1015613ba3576040517f08c379a0000000000000000000000000000000000000000000000000000000008152600401613b9a90616d9c565b60405180910390fd5b8183613baf9190616683565b84511015613bf2576040517f08c379a0000000000000000000000000000000000000000000000000000000008152600401613be990616e04565b60405180910390fd5b606082155f8114613c115760405191505f825260208201604052613c62565b6040519150601f8416801560200281840101858101878315602002848b0101015b81831015613c4f5780518352602083019250602081019050613c32565b50868552601f19601f8301166040525050505b50809150509392505050565b5f5f5f613c7c8686866149bb565b91509150613c8981614a15565b81925050509392505050565b5f5f5f613ca28585614b7a565b91509150613caf81614a15565b819250505092915050565b5f5f73ffffffffffffffffffffffffffffffffffffffff168373ffffffffffffffffffffffffffffffffffffffff1614158015613cfd5750613cfc838361220d565b5b905092915050565b60605f613d1183614bc6565b90505f602067ffffffffffffffff811115613d2f57613d2e61569c565b5b6040519080825280601f01601f191660200182016040528015613d615781602001600182028036833780820191505090505b5090508181528360208201528092505050919050565b5f825f018281548110613d8d57613d8c615e1b565b5b905f5260205f200154905092915050565b5f613dbe8473ffffffffffffffffffffffffffffffffffffffff16614c14565b15613f13578373ffffffffffffffffffffffffffffffffffffffff1663150b7a02613de7611edd565b8786866040518563ffffffff1660e01b8152600401613e099493929190616e22565b6020604051808303815f875af1925050508015613e4457506040513d601f19601f82011682018060405250810190613e419190616d27565b60015b613ec3573d805f8114613e72576040519150601f19603f3d011682016040523d82523d5f602084013e613e77565b606091505b505f815103613ebb576040517f08c379a0000000000000000000000000000000000000000000000000000000008152600401613eb290616917565b60405180910390fd5b805181602001fd5b63150b7a0260e01b7bffffffffffffffffffffffffffffffffffffffffffffffffffffffff1916817bffffffffffffffffffffffffffffffffffffffffffffffffffffffff191614915050613f18565b600190505b949350505050565b8173ffffffffffffffffffffffffffffffffffffffff168373ffffffffffffffffffffffffffffffffffffffff1603613f8e576040517f08c379a0000000000000000000000000000000000000000000000000000000008152600401613f8590616eb6565b60405180910390fd5b8060085f8573ffffffffffffffffffffffffffffffffffffffff1673ffffffffffffffffffffffffffffffffffffffff1681526020019081526020015f205f8473ffffffffffffffffffffffffffffffffffffffff1673ffffffffffffffffffffffffffffffffffffffff1681526020019081526020015f205f6101000a81548160ff0219169083151502179055508173ffffffffffffffffffffffffffffffffffffffff168373ffffffffffffffffffffffffffffffffffffffff167f17307eab39ab6107e8899845ad3d59bd9653f200f220920489ca2b5937696c318360405161407a9190615035565b60405180910390a3505050565b5f5f5f90507a184f03e93ff9f4daa797ed6e38ed64bf6a1f01000000000000000083106140e3577a184f03e93ff9f4daa797ed6e38ed64bf6a1f01000000000000000083816140d9576140d86160e4565b5b0492506040810190505b6d04ee2d6d415b85acef81000000008310614120576d04ee2d6d415b85acef81000000008381614116576141156160e4565b5b0492506020810190505b662386f26fc10000831061414f57662386f26fc100008381614145576141446160e4565b5b0492506010810190505b6305f5e1008310614178576305f5e100838161416e5761416d6160e4565b5b0492506008810190505b612710831061419d576127108381614193576141926160e4565b5b0492506004810190505b606483106141c057606483816141b6576141b56160e4565b5b0492506002810190505b600a83106141cf576001810190505b80915050919050565b5f815f01805490509050919050565b5f7f80ac58cd000000000000000000000000000000000000000000000000000000007bffffffffffffffffffffffffffffffffffffffffffffffffffffffff1916827bffffffffffffffffffffffffffffffffffffffffffffffffffffffff191614806142b157507f5b5e139f000000000000000000000000000000000000000000000000000000007bffffffffffffffffffffffffffffffffffffffffffffffffffffffff1916827bffffffffffffffffffffffffffffffffffffffffffffffffffffffff1916145b806142c157506142c082614c36565b5b9050919050565b60606142ee8273ffffffffffffffffffffffffffffffffffffffff16601460ff166142f5565b9050919050565b60605f600283600261430791906160a3565b6143119190616683565b67ffffffffffffffff81111561432a5761432961569c565b5b6040519080825280601f01601f19166020018201604052801561435c5781602001600182028036833780820191505090505b5090507f3000000000000000000000000000000000000000000000000000000000000000815f8151811061439357614392615e1b565b5b60200101907effffffffffffffffffffffffffffffffffffffffffffffffffffffffffffff191690815f1a9053507f7800000000000000000000000000000000000000000000000000000000000000816001815181106143f6576143f5615e1b565b5b60200101907effffffffffffffffffffffffffffffffffffffffffffffffffffffffffffff191690815f1a9053505f600184600261443491906160a3565b61443e9190616683565b90505b60018111156144dd577f3031323334353637383961626364656600000000000000000000000000000000600f8616601081106144805761447f615e1b565b5b1a60f81b82828151811061449757614496615e1b565b5b60200101907effffffffffffffffffffffffffffffffffffffffffffffffffffffffffffff191690815f1a905350600485901c9450806144d69061623d565b9050614441565b505f8414614520576040517f08c379a000000000000000000000000000000000000000000000000000000000815260040161451790616f1e565b60405180910390fd5b8091505092915050565b614543828260405180602001604052805f815250612e76565b5050565b8273ffffffffffffffffffffffffffffffffffffffff166145678261132e565b73ffffffffffffffffffffffffffffffffffffffff16146145bd576040517f08c379a00000000000000000000000000000000000000000000000000000000081526004016145b490616fac565b60405180910390fd5b5f73ffffffffffffffffffffffffffffffffffffffff168273ffffffffffffffffffffffffffffffffffffffff160361462b576040517f08c379a00000000000000000000000000000000000000000000000000000000081526004016146229061703a565b60405180910390fd5b6146388383836001614996565b8273ffffffffffffffffffffffffffffffffffffffff166146588261132e565b73ffffffffffffffffffffffffffffffffffffffff16146146ae576040517f08c379a00000000000000000000000000000000000000000000000000000000081526004016146a590616fac565b60405180910390fd5b60075f8281526020019081526020015f205f6101000a81549073ffffffffffffffffffffffffffffffffffffffff0219169055600160065f8573ffffffffffffffffffffffffffffffffffffffff1673ffffffffffffffffffffffffffffffffffffffff1681526020019081526020015f205f8282540392505081905550600160065f8473ffffffffffffffffffffffffffffffffffffffff1673ffffffffffffffffffffffffffffffffffffffff1681526020019081526020015f205f82825401925050819055508160055f8381526020019081526020015f205f6101000a81548173ffffffffffffffffffffffffffffffffffffffff021916908373ffffffffffffffffffffffffffffffffffffffff160217905550808273ffffffffffffffffffffffffffffffffffffffff168473ffffffffffffffffffffffffffffffffffffffff167fddf252ad1be2c89b69c2b068fc378daa952ba7f163c4a11628f55a4df523b3ef60405160405180910390a461482e838383600161499c565b505050565b5f61483e8383614caf565b61489057825f0182908060018154018082558091505060019003905f5260205f20015f9091909190915055825f0180549050836001015f8481526020019081526020015f208190555060019050614894565b5f90505b92915050565b5f5f836001015f8481526020019081526020015f205490505f811461498b575f6001826148c79190617058565b90505f6001865f01805490506148dd9190617058565b9050818114614943575f865f0182815481106148fc576148fb615e1b565b5b905f5260205f200154905080875f01848154811061491d5761491c615e1b565b5b905f5260205f20018190555083876001015f8381526020019081526020015f2081905550505b855f018054806149565761495561708b565b5b600190038181905f5260205f20015f90559055856001015f8681526020019081526020015f205f905560019350505050614990565b5f9150505b92915050565b50505050565b50505050565b5f6149b46149ae6125ff565b83614ccf565b9050919050565b5f5f5f7f7fffffffffffffffffffffffffffffffffffffffffffffffffffffffffffffff5f1b841690505f601b60ff865f1c901c6149f99190616683565b9050614a0787828885614d0f565b935093505050935093915050565b5f6004811115614a2857614a276170b8565b5b816004811115614a3b57614a3a6170b8565b5b0315614b775760016004811115614a5557614a546170b8565b5b816004811115614a6857614a676170b8565b5b03614aa8576040517f08c379a0000000000000000000000000000000000000000000000000000000008152600401614a9f9061712f565b60405180910390fd5b60026004811115614abc57614abb6170b8565b5b816004811115614acf57614ace6170b8565b5b03614b0f576040517f08c379a0000000000000000000000000000000000000000000000000000000008152600401614b0690617197565b60405180910390fd5b60036004811115614b2357614b226170b8565b5b816004811115614b3657614b356170b8565b5b03614b76576040517f08c379a0000000000000000000000000000000000000000000000000000000008152600401614b6d90617225565b60405180910390fd5b5b50565b5f5f6041835103614bb7575f5f5f602086015192506040860151915060608601515f1a9050614bab87828585614d0f565b94509450505050614bbf565b5f6002915091505b9250929050565b5f5f60ff835f1c169050601f811115614c0b576040517fb3512b0c00000000000000000000000000000000000000000000000000000000815260040160405180910390fd5b80915050919050565b5f5f8273ffffffffffffffffffffffffffffffffffffffff163b119050919050565b5f7f5a05180f000000000000000000000000000000000000000000000000000000007bffffffffffffffffffffffffffffffffffffffffffffffffffffffff1916827bffffffffffffffffffffffffffffffffffffffffffffffffffffffff19161480614ca85750614ca782614de7565b5b9050919050565b5f5f836001015f8481526020019081526020015f20541415905092915050565b5f6040517f190100000000000000000000000000000000000000000000000000000000000081528360028201528260228201526042812091505092915050565b5f5f7f7fffffffffffffffffffffffffffffff5d576e7357a4501ddfe92f46681b20a0835f1c1115614d47575f600391509150614dde565b5f6001878787876040515f8152602001604052604051614d6a949392919061725e565b6020604051602081039080840390855afa158015614d8a573d5f5f3e3d5ffd5b5050506020604051035190505f73ffffffffffffffffffffffffffffffffffffffff168173ffffffffffffffffffffffffffffffffffffffff1603614dd6575f60019250925050614dde565b805f92509250505b94509492505050565b5f7f7965db0b000000000000000000000000000000000000000000000000000000007bffffffffffffffffffffffffffffffffffffffffffffffffffffffff1916827bffffffffffffffffffffffffffffffffffffffffffffffffffffffff19161480614e595750614e5882614e60565b5b9050919050565b5f7f01ffc9a7000000000000000000000000000000000000000000000000000000007bffffffffffffffffffffffffffffffffffffffffffffffffffffffff1916827bffffffffffffffffffffffffffffffffffffffffffffffffffffffff1916149050919050565b5f73ffffffffffffffffffffffffffffffffffffffff82169050919050565b5f614ef282614ec9565b9050919050565b614f0281614ee8565b82525050565b5f602082019050614f1b5f830184614ef9565b92915050565b5f604051905090565b5f5ffd5b5f5ffd5b5f5ffd5b5f60608284031215614f4b57614f4a614f32565b5b81905092915050565b5f60208284031215614f6957614f68614f2a565b5b5f82013567ffffffffffffffff811115614f8657614f85614f2e565b5b614f9284828501614f36565b91505092915050565b5f7fffffffff0000000000000000000000000000000000000000000000000000000082169050919050565b614fcf81614f9b565b8114614fd9575f5ffd5b50565b5f81359050614fea81614fc6565b92915050565b5f6020828403121561500557615004614f2a565b5b5f61501284828501614fdc565b91505092915050565b5f8115159050919050565b61502f8161501b565b82525050565b5f6020820190506150485f830184615026565b92915050565b5f81519050919050565b5f82825260208201905092915050565b8281835e5f83830152505050565b5f601f19601f8301169050919050565b5f6150908261504e565b61509a8185615058565b93506150aa818560208601615068565b6150b381615076565b840191505092915050565b5f6020820190508181035f8301526150d68184615086565b905092915050565b5f819050919050565b6150f0816150de565b81146150fa575f5ffd5b50565b5f8135905061510b816150e7565b92915050565b5f6020828403121561512657615125614f2a565b5b5f615133848285016150fd565b91505092915050565b61514581614ee8565b811461514f575f5ffd5b50565b5f813590506151608161513c565b92915050565b5f5f6040838503121561517c5761517b614f2a565b5b5f61518985828601615152565b925050602061519a858286016150fd565b9150509250929050565b6151ad816150de565b82525050565b5f6020820190506151c65f8301846151a4565b92915050565b5f5ffd5b5f5ffd5b5f5ffd5b5f5f83601f8401126151ed576151ec6151cc565b5b8235905067ffffffffffffffff81111561520a576152096151d0565b5b602083019150836020820283011115615226576152256151d4565b5b9250929050565b5f5f6020838503121561524357615242614f2a565b5b5f83013567ffffffffffffffff8111156152605761525f614f2e565b5b61526c858286016151d8565b92509250509250929050565b5f5f5f6060848603121561528f5761528e614f2a565b5b5f61529c86828701615152565b93505060206152ad86828701615152565b92505060406152be868287016150fd565b9150509250925092565b5f819050919050565b6152da816152c8565b81146152e4575f5ffd5b50565b5f813590506152f5816152d1565b92915050565b5f602082840312156153105761530f614f2a565b5b5f61531d848285016152e7565b91505092915050565b61532f816152c8565b82525050565b5f6020820190506153485f830184615326565b92915050565b5f819050919050565b5f61537161536c61536784614ec9565b61534e565b614ec9565b9050919050565b5f61538282615357565b9050919050565b5f61539382615378565b9050919050565b6153a381615389565b82525050565b5f6020820190506153bc5f83018461539a565b92915050565b5f5f604083850312156153d8576153d7614f2a565b5b5f6153e5858286016150fd565b92505060206153f6858286016150fd565b9150509250929050565b5f6040820190506154135f830185614ef9565b61542060208301846151a4565b9392505050565b5f5f6040838503121561543d5761543c614f2a565b5b5f61544a858286016152e7565b925050602061545b85828601615152565b9150509250929050565b5f81519050919050565b5f82825260208201905092915050565b5f819050602082019050919050565b61549781614ee8565b82525050565b5f6154a8838361548e565b60208301905092915050565b5f602082019050919050565b5f6154ca82615465565b6154d4818561546f565b93506154df8361547f565b805f5b8381101561550f5781516154f6888261549d565b9750615501836154b4565b9250506001810190506154e2565b5085935050505092915050565b5f6020820190508181035f83015261553481846154c0565b905092915050565b5f6020828403121561555157615550614f2a565b5b5f61555e84828501615152565b91505092915050565b5f5f83601f84011261557c5761557b6151cc565b5b8235905067ffffffffffffffff811115615599576155986151d0565b5b6020830191508360208202830111156155b5576155b46151d4565b5b9250929050565b5f5f602083850312156155d2576155d1614f2a565b5b5f83013567ffffffffffffffff8111156155ef576155ee614f2e565b5b6155fb85828601615567565b92509250509250929050565b5f6bffffffffffffffffffffffff82169050919050565b61562781615607565b8114615631575f5ffd5b50565b5f813590506156428161561e565b92915050565b5f5f5f6060848603121561565f5761565e614f2a565b5b5f61566c868287016150fd565b935050602061567d86828701615152565b925050604061568e86828701615634565b9150509250925092565b5f5ffd5b7f4e487b71000000000000000000000000000000000000000000000000000000005f52604160045260245ffd5b6156d282615076565b810181811067ffffffffffffffff821117156156f1576156f061569c565b5b80604052505050565b5f615703614f21565b905061570f82826156c9565b919050565b5f67ffffffffffffffff82111561572e5761572d61569c565b5b61573782615076565b9050602081019050919050565b828183375f83830152505050565b5f61576461575f84615714565b6156fa565b9050828152602081018484840111156157805761577f615698565b5b61578b848285615744565b509392505050565b5f82601f8301126157a7576157a66151cc565b5b81356157b7848260208601615752565b91505092915050565b5f602082840312156157d5576157d4614f2a565b5b5f82013567ffffffffffffffff8111156157f2576157f1614f2e565b5b6157fe84828501615793565b91505092915050565b5f67ffffffffffffffff8211156158215761582061569c565b5b61582a82615076565b9050602081019050919050565b5f61584961584484615807565b6156fa565b90508281526020810184848401111561586557615864615698565b5b615870848285615744565b509392505050565b5f82601f83011261588c5761588b6151cc565b5b813561589c848260208601615837565b91505092915050565b5f5f5f5f608085870312156158bd576158bc614f2a565b5b5f6158ca87828801615152565b94505060206158db878288016150fd565b93505060406158ec878288016150fd565b925050606085013567ffffffffffffffff81111561590d5761590c614f2e565b5b61591987828801615878565b91505092959194509250565b5f7fff0000000000000000000000000000000000000000000000000000000000000082169050919050565b61595981615925565b82525050565b5f81519050919050565b5f82825260208201905092915050565b5f819050602082019050919050565b615991816150de565b82525050565b5f6159a28383615988565b60208301905092915050565b5f602082019050919050565b5f6159c48261595f565b6159ce8185615969565b93506159d983615979565b805f5b83811015615a095781516159f08882615997565b97506159fb836159ae565b9250506001810190506159dc565b5085935050505092915050565b5f60e082019050615a295f83018a615950565b8181036020830152615a3b8189615086565b90508181036040830152615a4f8188615086565b9050615a5e60608301876151a4565b615a6b6080830186614ef9565b615a7860a0830185615326565b81810360c0830152615a8a81846159ba565b905098975050505050505050565b5f5f60408385031215615aae57615aad614f2a565b5b5f615abb85828601615152565b9250506020615acc85828601615634565b9150509250929050565b5f5f60408385031215615aec57615aeb614f2a565b5b5f615af9858286016152e7565b9250506020615b0a858286016150fd565b9150509250929050565b615b1d8161501b565b8114615b27575f5ffd5b50565b5f81359050615b3881615b14565b92915050565b5f5f60408385031215615b5457615b53614f2a565b5b5f615b6185828601615152565b9250506020615b7285828601615b2a565b9150509250929050565b5f5f83601f840112615b9157615b906151cc565b5b8235905067ffffffffffffffff811115615bae57615bad6151d0565b5b602083019150836020820283011115615bca57615bc96151d4565b5b9250929050565b5f5f5f5f60608587031215615be957615be8614f2a565b5b5f85013567ffffffffffffffff811115615c0657615c05614f2e565b5b615c1287828801615b7c565b94509450506020615c2587828801615152565b9250506040615c3687828801615634565b91505092959194509250565b5f5f5f5f60808587031215615c5a57615c59614f2a565b5b5f615c6787828801615152565b9450506020615c7887828801615152565b9350506040615c89878288016150fd565b925050606085013567ffffffffffffffff811115615caa57615ca9614f2e565b5b615cb687828801615878565b91505092959194509250565b5f5f60208385031215615cd857615cd7614f2a565b5b5f83013567ffffffffffffffff811115615cf557615cf4614f2e565b5b615d0185828601615b7c565b92509250509250929050565b5f5f60408385031215615d2357615d22614f2a565b5b5f615d3085828601615152565b9250506020615d4185828601615152565b9150509250929050565b5f5ffd5b5f5ffd5b5f5ffd5b5f5f83356001602003843603038112615d7357615d72615d4b565b5b80840192508235915067ffffffffffffffff821115615d9557615d94615d4f565b5b602083019250602082023603831315615db157615db0615d53565b5b509250929050565b5f5f83356001602003843603038112615dd557615dd4615d4b565b5b80840192508235915067ffffffffffffffff821115615df757615df6615d4f565b5b602083019250602082023603831315615e1357615e12615d53565b5b509250929050565b7f4e487b71000000000000000000000000000000000000000000000000000000005f52603260045260245ffd5b7f4e487b71000000000000000000000000000000000000000000000000000000005f52602260045260245ffd5b5f6002820490506001821680615e8c57607f821691505b602082108103615e9f57615e9e615e48565b5b50919050565b7f4552433732313a20617070726f76616c20746f2063757272656e74206f776e655f8201527f7200000000000000000000000000000000000000000000000000000000000000602082015250565b5f615eff602183615058565b9150615f0a82615ea5565b604082019050919050565b5f6020820190508181035f830152615f2c81615ef3565b9050919050565b7f4552433732313a20617070726f76652063616c6c6572206973206e6f7420746f5f8201527f6b656e206f776e6572206f7220617070726f76656420666f7220616c6c000000602082015250565b5f615f8d603d83615058565b9150615f9882615f33565b604082019050919050565b5f6020820190508181035f830152615fba81615f81565b9050919050565b5f82356001604003833603038112615fdc57615fdb615d4b565b5b80830191505092915050565b7f4552433732313a2063616c6c6572206973206e6f7420746f6b656e206f776e655f8201527f72206f7220617070726f76656400000000000000000000000000000000000000602082015250565b5f616042602d83615058565b915061604d82615fe8565b604082019050919050565b5f6020820190508181035f83015261606f81616036565b9050919050565b7f4e487b71000000000000000000000000000000000000000000000000000000005f52601160045260245ffd5b5f6160ad826150de565b91506160b8836150de565b92508282026160c6816150de565b915082820484148315176160dd576160dc616076565b5b5092915050565b7f4e487b71000000000000000000000000000000000000000000000000000000005f52601260045260245ffd5b5f61611b826150de565b9150616126836150de565b925082616136576161356160e4565b5b828204905092915050565b7f416363657373436f6e74726f6c3a2063616e206f6e6c792072656e6f756e63655f8201527f20726f6c657320666f722073656c660000000000000000000000000000000000602082015250565b5f61619b602f83615058565b91506161a682616141565b604082019050919050565b5f6020820190508181035f8301526161c88161618f565b9050919050565b5f823560016040038336030381126161ea576161e9615d4b565b5b80830191505092915050565b5f616200826150de565b91507fffffffffffffffffffffffffffffffffffffffffffffffffffffffffffffffff820361623257616231616076565b5b600182019050919050565b5f616247826150de565b91505f820361625957616258616076565b5b600182039050919050565b5f819050815f5260205f209050919050565b5f6020601f8301049050919050565b5f82821b905092915050565b5f600883026162c07fffffffffffffffffffffffffffffffffffffffffffffffffffffffffffffffff82616285565b6162ca8683616285565b95508019841693508086168417925050509392505050565b5f6162fc6162f76162f2846150de565b61534e565b6150de565b9050919050565b5f819050919050565b616315836162e2565b61632961632182616303565b848454616291565b825550505050565b5f5f905090565b616340616331565b61634b81848461630c565b505050565b5b8181101561636e576163635f82616338565b600181019050616351565b5050565b601f8211156163b35761638481616264565b61638d84616276565b8101602085101561639c578190505b6163b06163a885616276565b830182616350565b50505b505050565b5f82821c905092915050565b5f6163d35f19846008026163b8565b1980831691505092915050565b5f6163eb83836163c4565b9150826002028217905092915050565b6164048261504e565b67ffffffffffffffff81111561641d5761641c61569c565b5b6164278254615e75565b616432828285616372565b5f60209050601f831160018114616463575f8415616451578287015190505b61645b85826163e0565b8655506164c2565b601f19841661647186616264565b5f5b8281101561649857848901518255600182019150602085019450602081019050616473565b868310156164b557848901516164b1601f8916826163c4565b8355505b6001600288020188555050505b505050505050565b7f4552433732313a20696e76616c696420746f6b656e20494400000000000000005f82015250565b5f6164fe601883615058565b9150616509826164ca565b602082019050919050565b5f6020820190508181035f83015261652b816164f2565b9050919050565b7f4552433732313a2061646472657373207a65726f206973206e6f7420612076615f8201527f6c6964206f776e65720000000000000000000000000000000000000000000000602082015250565b5f61658c602983615058565b915061659782616532565b604082019050919050565b5f6020820190508181035f8301526165b981616580565b9050919050565b5f6040820190506165d35f8301856151a4565b6165e06020830184614ef9565b9392505050565b5f815190506165f581615b14565b92915050565b5f602082840312156166105761660f614f2a565b5b5f61661d848285016165e7565b91505092915050565b5f81905092915050565b5f61663a8261504e565b6166448185616626565b9350616654818560208601615068565b80840191505092915050565b5f61666b8285616630565b91506166778284616630565b91508190509392505050565b5f61668d826150de565b9150616698836150de565b92508282019050808211156166b0576166af616076565b5b92915050565b7f455243323938313a20726f79616c7479206665652077696c6c206578636565645f8201527f2073616c65507269636500000000000000000000000000000000000000000000602082015250565b5f616710602a83615058565b915061671b826166b6565b604082019050919050565b5f6020820190508181035f83015261673d81616704565b9050919050565b7f455243323938313a20496e76616c696420706172616d657465727300000000005f82015250565b5f616778601b83615058565b915061678382616744565b602082019050919050565b5f6020820190508181035f8301526167a58161676c565b9050919050565b5f81519050919050565b5f819050602082019050919050565b5f6167d082516152c8565b80915050919050565b5f6167e3826167ac565b826167ed846167b6565b90506167f8816167c5565b92506020821015616838576168337fffffffffffffffffffffffffffffffffffffffffffffffffffffffffffffffff83602003600802616285565b831692505b5050919050565b7f455243323938313a20696e76616c6964207265636569766572000000000000005f82015250565b5f616873601983615058565b915061687e8261683f565b602082019050919050565b5f6020820190508181035f8301526168a081616867565b9050919050565b7f4552433732313a207472616e7366657220746f206e6f6e2045524337323152655f8201527f63656976657220696d706c656d656e7465720000000000000000000000000000602082015250565b5f616901603283615058565b915061690c826168a7565b604082019050919050565b5f6020820190508181035f83015261692e816168f5565b9050919050565b7f416363657373436f6e74726f6c3a206163636f756e74200000000000000000005f82015250565b5f616969601783616626565b915061697482616935565b601782019050919050565b7f206973206d697373696e6720726f6c65200000000000000000000000000000005f82015250565b5f6169b3601183616626565b91506169be8261697f565b601182019050919050565b5f6169d38261695d565b91506169df8285616630565b91506169ea826169a7565b91506169f68284616630565b91508190509392505050565b5f60a082019050616a155f830188615326565b616a226020830187615326565b616a2f6040830186615326565b616a3c60608301856151a4565b616a496080830184614ef9565b9695505050505050565b7f4552433732313a206d696e7420746f20746865207a65726f20616464726573735f82015250565b5f616a87602083615058565b9150616a9282616a53565b602082019050919050565b5f6020820190508181035f830152616ab481616a7b565b9050919050565b7f4552433732313a20746f6b656e20616c7265616479206d696e746564000000005f82015250565b5f616aef601c83615058565b9150616afa82616abb565b602082019050919050565b5f6020820190508181035f830152616b1c81616ae3565b9050919050565b7f5065726d697428000000000000000000000000000000000000000000000000005f82015250565b5f616b57600783616626565b9150616b6282616b23565b600782019050919050565b7f61646472657373207370656e6465722c75696e7432353620746f6b656e49642c5f8201527f75696e74323536206e6f6e63652c75696e7432353620646561646c696e652900602082015250565b5f616bc7603f83616626565b9150616bd282616b6d565b603f82019050919050565b5f616be782616b4b565b9150616bf282616bbb565b9150819050919050565b5f60a082019050616c0f5f830188615326565b616c1c6020830187614ef9565b616c2960408301866151a4565b616c3660608301856151a4565b616c4360808301846151a4565b9695505050505050565b5f82825260208201905092915050565b5f616c67826167ac565b616c718185616c4d565b9350616c81818560208601615068565b616c8a81615076565b840191505092915050565b5f604082019050616ca85f830185615326565b8181036020830152616cba8184616c5d565b90509392505050565b5f81905092915050565b5f616cd7826167ac565b616ce18185616cc3565b9350616cf1818560208601615068565b80840191505092915050565b5f616d088284616ccd565b915081905092915050565b5f81519050616d2181614fc6565b92915050565b5f60208284031215616d3c57616d3b614f2a565b5b5f616d4984828501616d13565b91505092915050565b7f736c6963655f6f766572666c6f770000000000000000000000000000000000005f82015250565b5f616d86600e83615058565b9150616d9182616d52565b602082019050919050565b5f6020820190508181035f830152616db381616d7a565b9050919050565b7f736c6963655f6f75744f66426f756e64730000000000000000000000000000005f82015250565b5f616dee601183615058565b9150616df982616dba565b602082019050919050565b5f6020820190508181035f830152616e1b81616de2565b9050919050565b5f608082019050616e355f830187614ef9565b616e426020830186614ef9565b616e4f60408301856151a4565b8181036060830152616e618184616c5d565b905095945050505050565b7f4552433732313a20617070726f766520746f2063616c6c6572000000000000005f82015250565b5f616ea0601983615058565b9150616eab82616e6c565b602082019050919050565b5f6020820190508181035f830152616ecd81616e94565b9050919050565b7f537472696e67733a20686578206c656e67746820696e73756666696369656e745f82015250565b5f616f08602083615058565b9150616f1382616ed4565b602082019050919050565b5f6020820190508181035f830152616f3581616efc565b9050919050565b7f4552433732313a207472616e736665722066726f6d20696e636f7272656374205f8201527f6f776e6572000000000000000000000000000000000000000000000000000000602082015250565b5f616f96602583615058565b9150616fa182616f3c565b604082019050919050565b5f6020820190508181035f830152616fc381616f8a565b9050919050565b7f4552433732313a207472616e7366657220746f20746865207a65726f206164645f8201527f7265737300000000000000000000000000000000000000000000000000000000602082015250565b5f617024602483615058565b915061702f82616fca565b604082019050919050565b5f6020820190508181035f83015261705181617018565b9050919050565b5f617062826150de565b915061706d836150de565b925082820390508181111561708557617084616076565b5b92915050565b7f4e487b71000000000000000000000000000000000000000000000000000000005f52603160045260245ffd5b7f4e487b71000000000000000000000000000000000000000000000000000000005f52602160045260245ffd5b7f45434453413a20696e76616c6964207369676e617475726500000000000000005f82015250565b5f617119601883615058565b9150617124826170e5565b602082019050919050565b5f6020820190508181035f8301526171468161710d565b9050919050565b7f45434453413a20696e76616c6964207369676e6174757265206c656e677468005f82015250565b5f617181601f83615058565b915061718c8261714d565b602082019050919050565b5f6020820190508181035f8301526171ae81617175565b9050919050565b7f45434453413a20696e76616c6964207369676e6174757265202773272076616c5f8201527f7565000000000000000000000000000000000000000000000000000000000000602082015250565b5f61720f602283615058565b915061721a826171b5565b604082019050919050565b5f6020820190508181035f83015261723c81617203565b9050919050565b5f60ff82169050919050565b61725881617243565b82525050565b5f6080820190506172715f830187615326565b61727e602083018661724f565b61728b6040830185615326565b6172986060830184615326565b9594505050505056fea2646970667358221220f04195ab6e477aff54c13e20979dab35ac4b0e19d35e7f5fa67ca2860aff95bb64736f6c634300081c0033","linkReferences":{}},"methodIdentifiers":{"DEFAULT_ADMIN_ROLE()":"a217fddf","DOMAIN_SEPARATOR()":"3644e515","MINTER_ROLE()":"d5391393","_safeBurnBatch((address,uint256[])[])":"3e769acd","_totalSupply()":"3eaaf86b","approve(address,uint256)":"095ea7b3","balanceOf(address)":"70a08231","baseURI()":"6c0360eb","burn(uint256)":"42966c68","burnBatch(uint256[])":"e4623c1b","contractURI()":"e8a3d485","eip712Domain()":"84b0196e","getAdmins()":"31ae450b","getApproved(uint256)":"081812fc","getRoleAdmin(bytes32)":"248a9ca3","getRoleMember(bytes32,uint256)":"9010d07c","getRoleMemberCount(bytes32)":"ca15c873","grantMinterRole(address)":"3dd1eb61","grantRole(bytes32,address)":"2f2ff15d","hasRole(bytes32,address)":"91d14854","isApprovedForAll(address,address)":"e985e9c5","mint(address,uint256)":"40c10f19","mintBatch((address,uint256[])[])":"9e2641a3","name()":"06fdde03","nonces(uint256)":"141a468c","operatorAllowlist()":"29326f29","ownerOf(uint256)":"6352211e","permit(address,uint256,uint256,bytes)":"745a41bc","renounceRole(bytes32,address)":"36568abe","revokeMinterRole(address)":"69e2f0fb","revokeRole(bytes32,address)":"d547741f","royaltyInfo(uint256,uint256)":"2a55205a","safeBurn(address,uint256)":"9f15d700","safeBurnBatch((address,uint256[])[])":"74f16a81","safeMint(address,uint256)":"a1448194","safeMintBatch((address,uint256[])[])":"234af046","safeTransferFrom(address,address,uint256)":"42842e0e","safeTransferFrom(address,address,uint256,bytes)":"b88d4fde","safeTransferFromBatch((address,address[],uint256[]))":"008ad946","setApprovalForAll(address,bool)":"a22cb465","setBaseURI(string)":"55f804b3","setContractURI(string)":"938e3d7b","setDefaultRoyaltyReceiver(address,uint96)":"885e7a08","setNFTRoyaltyReceiver(uint256,address,uint96)":"439aed34","setNFTRoyaltyReceiverBatch(uint256[],address,uint96)":"a7012816","supportsInterface(bytes4)":"01ffc9a7","symbol()":"95d89b41","tokenURI(uint256)":"c87b56dd","totalSupply()":"18160ddd","transferFrom(address,address,uint256)":"23b872dd"},"id":36}